:020000040000FA
:040000004AEF00F0D3
:100008004282FACF16F0FBCF17F0F3CF18F0F4CFF7
:1000180019F0F6CF1AF0F7CF1BF0F8CF1CF0F5CF98
:100028001DF00E01BDAB1BEF00F01DEF00F028EF37
:1000380000F0C5AB22EF00F024EF00F028EF00F04D
:1000480032EC16F038EF00F0BDA92DEF00F02FEFDD
:1000580000F038EF00F0C5A934EF00F036EF00F0FB
:1000680038EF00F082EC15F01DC0F5FF1CC0F8FF5A
:100078001BC0F7FF1AC0F6FF19C0F4FF18C0F3FF42
:1000880017C0FBFF16C0FAFF42921100C0EF15F02F
:100F000000000102030100020302000103030001CB
:100F100002000201030102000302030001030200B8
:100F200001010304050400000000F29E000188BFD7
:100F3000A3EF07F088510AE1040E875DD8A0A3EF64
:100F400007F0A6EF07F0010EA7EF07F0000E94ECF4
:100F500016F087C07DF088C07EF0000E286E000E6F
:100F6000296E000E5BEC14F0000E216E000E206E58
:100F7000000E226EB0EC12F0FF0AD8B4C2EF07F0F8
:100F8000C5EF07F0010EC6EF07F0000E94EC16F067
:100F9000000E216E040E206E000E226EB0EC12F0D8
:100FA000FF0AD8B4D6EF07F0D9EF07F0010EDAEF59
:100FB00007F0000E94EC16F0000E0001696F84B883
:100FC000E4EF07F0E6EF07F055EF08F08EBAEBEF2D
:100FD00007F0EDEF07F055EF08F084B6F2EF07F0F9
:100FE000F4EF07F055EF08F08EB4F9EF07F0FBEFE0
:100FF00007F055EF08F084B200EF08F002EF08F0B8
:1010000055EF08F08EB007EF08F009EF08F055EF44
:1010100008F084BC0EEF08F010EF08F055EF08F070
:101020008EBE15EF08F017EF08F055EF08F083B407
:101030001CEF08F01EEF08F055EF08F08DB223EF1B
:1010400008F025EF08F055EF08F083B62AEF08F016
:101050002CEF08F055EF08F08DB831EF08F033EFC2
:1010600008F055EF08F018EC18F00009D8A43BEF91
:1010700008F03DEF08F055EF08F08DAA42EF08F0B8
:1010800044EF08F055EF08F083B049EF08F04BEF5C
:1010900008F055EF08F082AC50EF08F052EF08F07E
:1010A00055EF08F0010E0001696F00016951D8A4E5
:1010B0005CEF08F05FEF08F0010E60EF08F0000E43
:1010C00094EC16F0000E00016A6F82AE6AEF08F031
:1010D0006CEF08F075EF08F082AA71EF08F073EF7B
:1010E00008F075EF08F0010E6A6F6A51D8A47BEF23
:1010F00008F07EEF08F0010E7FEF08F0000E94EC90
:1011000016F0000E00016B6F82A889EF08F08BEFDC
:1011100008F0A9EF08F082A690EF08F092EF08F02F
:10112000A9EF08F082B497EF08F099EF08F0A9EF63
:1011300008F082B29EEF08F0A0EF08F0A9EF08F0E7
:1011400082B0A5EF08F0A7EF08F0A9EF08F0010EB4
:101150006B6F6B51D8A4AFEF08F0B2EF08F0010E3F
:10116000B3EF08F0000E94EC16F0000E0001786F5B
:10117000000E776F78BFC6EF08F0785109E1020ED4
:10118000775DD8A0C6EF08F0C8EF08F0CAEF08F006
:101190008FEF0AF077057811D8A4D1EF08F0D3EFDC
:1011A00008F0D5EF08F038EC18F0000E0001856F5C
:1011B000070E8565DEEF08F0E0EF08F0E2EF08F0DB
:1011C00023EF09F0855122EC10F0000E0001806F32
:1011D000000E7F6F80BFF6EF08F0805109E1040E2A
:1011E0007F5DD8A0F6EF08F0F8EF08F0FAEF08F00E
:1011F00020EF09F07F5129EC14F000018551040D16
:10120000010E676F0F0E686FF3506727F450682365
:101210007F5167278051682367C0F6FF68C0F7FFDA
:10122000F86A0800F550286E296A000E2A6E000E32
:101230002B6EF8EC0CF000017F4B802BEAEF08F0EE
:10124000852BD8EF08F0000EF5EC13F08384E9EC61
:1012500017F0FF0E296E2868010E2A6E000E2B6E05
:10126000F8EC0CF0000EF5EC13F08386E9EC17F0C7
:10127000FF0E296E2868000E2A6E010E2B6EF8EC08
:101280000CF0010EF5EC13F0000E00017A6F000E69
:10129000796F7ABF55EF09F07A5109E1020E795D55
:1012A000D8A055EF09F057EF09F059EF09F083EF97
:1012B00009F0E9EC17F0000E296E0F0E286E010EF2
:1012C0002A6E010E2B6EF8EC0CF0000179517A11A8
:1012D000D8B46DEF09F06FEF09F073EF09F0B3ECDC
:1012E00017F075EF09F0F5EC17F0FF0E296E28687E
:1012F000000E2A6E000E2B6EF8EC0CF00001794BFC
:101300007A2B49EF09F0000EF5EC13F0F28E050E82
:10131000E82EFED700F0F29E020E00017D25676FD9
:10132000000E7E21686F875167190AE1885168199C
:10133000D8B49DEF09F0A0EF09F0010EA1EF09F07C
:10134000000E94EC16F087C07DF088C07EF0000E91
:101350000001856F070E8565B0EF09F0B2EF09F067
:10136000B4EF09F070EF0AF08DBAB9EF09F0BCEFF5
:1013700009F0010EBDEF09F0000E94EC16F03D6887
:101380003C68000E1E6E00018551FDEC14F0F28EDB
:10139000E9EC17F0F29E00017D4B7E2BB0EC14F0CF
:1013A00085C028F0FF0E296E000185515BEC14F01A
:1013B000010E286E000E296E00018551E0EC11F03F
:1013C000150E0001686F4B0E676FBE0EE82EFED73C
:1013D000672FFCD7682FFAD700F03D683C68010EF4
:1013E0001E6E00018551FDEC14F0F28EE9EC17F051
:1013F000F29E00017D4B7E2BB0EC14F085C028F0EE
:1014000085C029F0000185515BEC14F0010E286EB7
:10141000010E296E00018551E0EC11F0150E00015E
:10142000686F4B0E676FBE0EE82EFED7672FFCD796
:10143000682FFAD700F0F28E000E0DEC18F0F29E35
:1014400000017D4B7E2B85C028F085C029F0000E61
:101450005BEC14F0000E286E00018551D8B433EF18
:101460000AF036EF0AF0010E37EF0AF0000E296E8F
:10147000000EE0EC11F0150E0001686F4B0E676F67
:10148000BE0EE82EFED7672FFCD7682FFAD700F0E4
:10149000F28E010E0DEC18F0F29E00017D4B7E2BBA
:1014A00085C028F085C029F085515BEC14F0010E51
:1014B000286E010E296E00018551E0EC11F0150E29
:1014C0000001686F4B0E676FBE0EE82EFED7672FC8
:1014D000FCD7682FFAD700F00001852BAAEF09F09E
:1014E000000EF5EC13F0F28E050EE82EFED700F09C
:1014F000F29E00017D5187190AE17E518819D8B406
:1015000084EF0AF087EF0AF0010E88EF0AF0000E70
:1015100094EC16F00001774B782BBAEF08F0F28EBE
:10152000000E7C6F000E7B6F7CBFA0EF0AF07C5139
:1015300009E1040E7B5DD8A0A0EF0AF0A2EF0AF04B
:10154000A4EF0AF0DBEF0AF0010E0DEC18F0000139
:101550007B5129EC14F0070E3B18D8B4B2EF0AF017
:10156000B5EF0AF0010EB6EF0AF0000E94EC16F09B
:10157000000E0DEC18F0070E3B18D8B4C2EF0AF0BD
:10158000C5EF0AF0010EC6EF0AF0000E94EC16F05B
:10159000F5EC17F03B50D8B4D0EF0AF0D3EF0AF0D7
:1015A000010ED4EF0AF0000E94EC16F000017B4B14
:1015B0007C2B94EF0AF0000E826F000E816F82BFC9
:1015C000EBEF0AF0825109E1040E815DD8A0EBEF48
:1015D0000AF0EDEF0AF0EFEF0AF0B9EF0BF0000EB2
:1015E0006C6F82AEF6EF0AF0F8EF0AF001EF0BF045
:1015F00082AAFDEF0AF0FFEF0AF001EF0BF0010EF7
:101600006C6F6C51D8A407EF0BF00AEF0BF0010ED2
:101610000BEF0BF0000E94EC16F00001815129EC59
:1016200014F093EF0BF0000E6D6F82BE1AEF0BF00B
:101630001CEF0BF025EF0BF082AA21EF0BF023EF4C
:101640000BF025EF0BF0010E6D6F6D51D8A42BEF51
:101650000BF02EEF0BF0010E2FEF0BF0000E94ECC1
:1016600016F0B2EF0BF0000E6E6F82AE3AEF0BF099
:101670003CEF0BF045EF0BF082BA41EF0BF043EF7C
:101680000BF045EF0BF0010E6E6F6E51D8A44BEFCF
:101690000BF04EEF0BF0010E4FEF0BF0000E94EC41
:1016A00016F0B2EF0BF0000E6F6F82AE5AEF0BF038
:1016B0005CEF0BF065EF0BF082AA61EF0BF063EFCC
:1016C0000BF065EF0BF0010E6F6F6F51D8A46BEF4D
:1016D0000BF06EEF0BF0010E6FEF0BF0000E94ECC1
:1016E00016F0B2EF0BF0000E706F82AE7AEF0BF0D7
:1016F0007CEF0BF085EF0BF082AA81EF0BF083EF0C
:101700000BF085EF0BF0010E706F7051D8A48BEFCA
:101710000BF08EEF0BF0010E8FEF0BF0000E94EC40
:1017200016F0B2EF0BF081C067F082C068F00001E4
:101730006851000AD8B49FEF0BF0B2EF0BF067517D
:10174000000AD8B413EF0BF0010AD8B433EF0BF052
:10175000030AD8B453EF0BF0010AD8B473EF0BF0BF
:10176000B2EF0BF0F5EC17F00001814B822BDFEFAD
:101770000AF0000E716F82AEC0EF0BF0C2EF0BF0FB
:10178000CBEF0BF082AAC7EF0BF0C9EF0BF0CBEF5A
:101790000BF0010E716F7151D8A4D1EF0BF0D4EFA3
:1017A0000BF0010ED5EF0BF0000E94EC16F0000ECE
:1017B0000001846F000E836F84BFE8EF0BF084514B
:1017C00009E1040E835DD8A0E8EF0BF0EAEF0BF01F
:1017D000ECEF0BF095EF0CF0835129EC14F071EF66
:1017E0000CF0000E726F82BEF8EF0BF0FAEF0BF008
:1017F00003EF0CF082AAFFEF0BF001EF0CF003EF08
:101800000CF0010E726F7251D8A409EF0CF00CEFBE
:101810000CF0010E0DEF0CF0000E94EC16F090EFB2
:101820000CF0000E736F82BE18EF0CF01AEF0CF084
:1018300023EF0CF082BA1FEF0CF021EF0CF023EF36
:101840000CF0010E736F7351D8A429EF0CF02CEF3C
:101850000CF0010E2DEF0CF0000E94EC16F090EF52
:101860000CF0000E746F82BE38EF0CF03AEF0CF003
:1018700043EF0CF082BA3FEF0CF041EF0CF043EF76
:101880000CF0010E746F7451D8A449EF0CF04CEFBA
:101890000CF0010E4DEF0CF0000E94EC16F090EFF2
:1018A0000CF0000E756F82BE58EF0CF05AEF0CF082
:1018B00063EF0CF082BA5FEF0CF061EF0CF063EFB6
:1018C0000CF0010E756F7551D8A469EF0CF06CEF38
:1018D0000CF0010E6DEF0CF0000E94EC16F090EF92
:1018E0000CF083C067F084C068F000016851000A02
:1018F000D8B47DEF0CF090EF0CF06751000AD8B42B
:10190000F1EF0BF0010AD8B411EF0CF0030AD8B4D0
:1019100031EF0CF0010AD8B451EF0CF090EF0CF05D
:101920000001834B842BDCEF0BF0F5EC17F0000E7D
:101930000001766F82AE9FEF0CF0A1EF0CF0AAEFE2
:101940000CF082AAA6EF0CF0A8EF0CF0AAEF0CF0B6
:10195000010E766F7651D8A4B0EF0CF0B3EF0CF017
:10196000010EB4EF0CF0000E94EC16F0F29E000E97
:101970000001856F070E8565C0EF0CF0C2EF0CF01B
:10198000C4EF0CF0EAEF0CF08551ABEC16F000015F
:1019900085513D18D8B4CFEF0CF0D2EF0CF0010E0A
:1019A000D3EF0CF0000E94EC16F03D68C1EC16F08D
:1019B000000185513D18D8B4E0EF0CF0E3EF0CF0D6
:1019C000010EE4EF0CF0000E94EC16F00001852BF4
:1019D000BAEF0CF0000E236E040E226E000E246E81
:1019E00063EC15F0000EABEC16F088EC14F012006E
:1019F000D4EF0EF0000E0001606F8EBA02EF0DF012
:101A000004EF0DF03AEF0DF08EB409EF0DF00BEF8F
:101A10000DF03AEF0DF08EB010EF0DF013EF0DF06A
:101A2000010E14EF0DF0000E3A18D8A41AEF0DF0C5
:101A30001CEF0DF03AEF0DF08EBE21EF0DF024EF0C
:101A40000DF0010E25EF0DF0000E3A18D8A42BEF83
:101A50000DF02DEF0DF03AEF0DF018EC18F0000935
:101A6000D8A435EF0DF037EF0DF03AEF0DF0010E81
:101A70000001606F00016051D8A441EF0DF044EF08
:101A80000DF0010E45EF0DF0000E94EC16F001EF95
:101A90000FF0000E0001616F8EAA51EF0DF053EFB1
:101AA0000DF089EF0DF08EB458EF0DF05AEF0DF0F8
:101AB00089EF0DF08EB05FEF0DF062EF0DF0010ECB
:101AC00063EF0DF0000E3A18D8A469EF0DF06BEF3C
:101AD0000DF089EF0DF08EBE70EF0DF073EF0DF08D
:101AE000010E74EF0DF0000E3A18D8A47AEF0DF045
:101AF0007CEF0DF089EF0DF018EC18F03A18D8A42F
:101B000084EF0DF086EF0DF089EF0DF0010E00016E
:101B1000616F00016151D8A490EF0DF093EF0DF0CB
:101B2000010E94EF0DF0000E94EC16F001EF0FF0A3
:101B3000000E0001626F8EBAA0EF0DF0A2EF0DF063
:101B4000D8EF0DF08EA4A7EF0DF0A9EF0DF0D8EFB0
:101B50000DF08EB0AEEF0DF0B1EF0DF0010EB2EF63
:101B60000DF0000E3A18D8A4B8EF0DF0BAEF0DF052
:101B7000D8EF0DF08EBEBFEF0DF0C2EF0DF0010EED
:101B8000C3EF0DF0000E3A18D8A4C9EF0DF0CBEF5B
:101B90000DF0D8EF0DF018EC18F03A18D8A4D3EFE8
:101BA0000DF0D5EF0DF0D8EF0DF0010E0001626FD2
:101BB00000016251D8A4DFEF0DF0E2EF0DF0010E4D
:101BC000E3EF0DF0000E94EC16F001EF0FF0000EB5
:101BD0000001636F8EBAEFEF0DF0F1EF0DF027EF1C
:101BE0000EF08EB4F6EF0DF0F8EF0DF027EF0EF0DB
:101BF0008EB0FDEF0DF000EF0EF0010E01EF0EF0D4
:101C0000000E3A18D8B407EF0EF009EF0EF027EFE8
:101C10000EF08EBE0EEF0EF011EF0EF0010E12EF71
:101C20000EF0000E3A18D8A418EF0EF01AEF0EF0CE
:101C300027EF0EF018EC18F00009D8B422EF0EF0E0
:101C400024EF0EF027EF0EF0010E0001636F00018C
:101C50006351D8A42EEF0EF031EF0EF0010E32EFEB
:101C60000EF0000E94EC16F001EF0FF0000E0001E4
:101C7000646F8EBA3EEF0EF040EF0EF076EF0EF08E
:101C80008EB445EF0EF047EF0EF076EF0EF08EB00B
:101C90004CEF0EF04FEF0EF0010E50EF0EF0000E75
:101CA0003A18D8A456EF0EF058EF0EF076EF0EF07B
:101CB0008EBE5DEF0EF060EF0EF0010E61EF0EF0E4
:101CC000000E3A18D8B467EF0EF069EF0EF076EF19
:101CD0000EF018EC18F00009D8B471EF0EF073EFA5
:101CE0000EF076EF0EF0010E0001646F00016451FA
:101CF000D8A47DEF0EF080EF0EF0010E81EF0EF014
:101D0000000E94EC16F001EF0FF0000E0001656F6D
:101D10008EAA8DEF0EF08FEF0EF0C5EF0EF08EA4B1
:101D200094EF0EF096EF0EF0C5EF0EF08EB09BEF35
:101D30000EF09EEF0EF0010E9FEF0EF0000E3A181F
:101D4000D8B4A5EF0EF0A7EF0EF0C5EF0EF08EBEE3
:101D5000ACEF0EF0AFEF0EF0010EB0EF0EF0000E94
:101D60003A18D8B4B6EF0EF0B8EF0EF0C5EF0EF09B
:101D700018EC18F00009D8B4C0EF0EF0C2EF0EF066
:101D8000C5EF0EF0010E0001656F00016551D8A48A
:101D9000CCEF0EF0CFEF0EF0010ED0EF0EF0000EF4
:101DA00094EC16F001EF0FF028C02CF029C02DF0B4
:101DB0002D50000AD8B4E3EF0EF0FF0AD8B4FAEFC2
:101DC0000EF001EF0FF02C50000AD8B449EF0DF0DF
:101DD000010AD8B498EF0DF0030AD8B4E7EF0DF07C
:101DE000010AD8B436EF0EF00C0AD8B485EF0EF025
:101DF00001EF0FF02C50FF0AD8B4FAEF0CF001EF0E
:101E00000FF0000E0001666F8DB209EF0FF00CEFBE
:101E10000FF0010E0DEF0FF0000E2A18D8A413EFEB
:101E20000FF015EF0FF028EF0FF08DB81AEF0FF04D
:101E30001DEF0FF0010E1EEF0FF0000E2B18D8A4AF
:101E400024EF0FF026EF0FF028EF0FF0010E666F72
:101E50006651D8A42EEF0FF031EF0FF0010E32EFE4
:101E60000FF0000E94EC16F0120077CE15F0000182
:101E7000874B882B3A50D8B440EF0FF042EF0FF069
:101E800044EF0FF0300E151A15A049EF0FF04BEF8D
:101E90000FF04CEF0FF0829E15A251EF0FF053EFB1
:101EA0000FF05CEF0FF0829A5CEF0FF021EF10F073
:101EB000828E828A7EEF0FF01550330B0D6E0E6A04
:101EC0000E50000AD8B467EF0FF07EEF0FF00D5000
:101ED000000AD8B458EF0FF0010AD8B456EF0FF04B
:101EE000030AD8B421EF10F0120AD8B421EF10F091
:101EF000300AD8B421EF10F07EEF0FF0070E3B64EC
:101F000084EF0FF086EF0FF088EF0FF021EF10F065
:101F1000000E136E010E146E000E126E000E116E86
:101F2000B8EF0FF015A097EF0FF099EF0FF0E9EF72
:101F30000FF014501312E9EF0FF015A2A2EF0FF0FB
:101F4000A4EF0FF0E9EF0FF099EF0FF015A8ABEF4A
:101F50000FF0ADEF0FF0E9EF0FF099EF0FF015AACA
:101F6000B4EF0FF0B6EF0FF0E9EF0FF099EF0FF0CD
:101F70003B50040D010E0D6E0F0E0E6EF3500D262C
:101F8000F4500E2211500D2612500E220DC0F6FFF5
:101F90000EC0F7FFF86A0800F5500F6E106A105077
:101FA000000AD8B4D6EF0FF0E9EF0FF00F50000A97
:101FB000D8B492EF0FF0010AD8B49DEF0FF0030AE6
:101FC000D8B4A6EF0FF0010AD8B4AFEF0FF0E9EFE5
:101FD0000FF0D8901436114A122A12BEF9EF0FF002
:101FE000125009E1040E115CD8A0F9EF0FF0FBEFDD
:101FF0000FF0B8EF0FF015A400EF10F002EF10F0A3
:1020000004EF10F0145013121350030B030AD8A45A
:102010000CEF10F00EEF10F01FEF10F0C7EC17F000
:102020001340E8423F0B070B3C6E15A61AEF10F069
:102030001CEF10F01FEF10F03C509DEC17F07AEC05
:1020400013F01200226E070E226429EF10F02BEF1E
:1020500010F02DEF10F0000E226E000E256E000E17
:10206000246E210E2424F66E0F0E2520F76EF86ADA
:10207000000EF8220800F5CF23F04FEF10F023C038
:102080002AFE80EF10F023C034FE80EF10F023C052
:1020900052FE80EF10F023C05CFE80EF10F0225063
:1020A000040D010E1E6E0F0E1F6EF3501E26F4500F
:1020B0001F2224501E2625501F221EC0F6FF1FC0BF
:1020C000F7FFF86A0800F550206E216A2150000AD7
:1020D000D8B46DEF10F080EF10F02050000AD8B4A3
:1020E0003FEF10F0010AD8B443EF10F0030AD8B460
:1020F00047EF10F0010AD8B44BEF10F080EF10F06A
:10210000244A252A25BE8EEF10F0255009E1040E41
:10211000245CD8A08EEF10F090EF10F031EF10F0AB
:1021200022C03BF01200056E070E05649AEF10F016
:102130009CEF10F09EEF10F0000E056E000E076E83
:10214000000E066E210E0624F66E0F0E0720F76EA7
:10215000F86A000EF8220800F5CF08F0C0EF10F082
:1021600008C02AFEF1EF10F008C034FEF1EF10F0C5
:1021700008C052FEF1EF10F008C05CFEF1EF10F065
:102180000550040D010E016E0F0E026EF350012674
:10219000F4500222065001260750022201C0F6FF29
:1021A00002C0F7FFF86A0800F550036E046A045095
:1021B000000AD8B4DEEF10F0F1EF10F00350000A7F
:1021C000D8B4B0EF10F0010AD8B4B4EF10F0030A9D
:1021D000D8B4B8EF10F0010AD8B4BCEF10F0F1EFAA
:1021E00010F0064A072A07BEFFEF10F0075009E17A
:1021F000040E065CD8A0FFEF10F001EF11F0A2EF83
:1022000010F005C03BF01200226E1E50D8A40BEF58
:1022100011F00DEF11F018EF11F03F5007E1020E31
:102220003E5CD8B016EF11F018EF11F01CEF11F072
:1022300040C03EF041C03FF03EB021EF11F024EF2E
:1022400011F0010E25EF11F0000E236ED8903F32F1
:102250003E32000E1F6E22A030EF11F032EF11F06F
:102260003CEF11F02350D8B438EF11F03AEF11F0F1
:102270003CEF11F0010E1F6E1FB002D0829401D00E
:102280008284000E206E22A248EF11F04AEF11F076
:1022900054EF11F02350D8B450EF11F052EF11F079
:1022A00054EF11F0010E206E20B002D0829201D0C6
:1022B0008282000E216E22A460EF11F062EF11F015
:1022C0006CEF11F02350D8B468EF11F06AEF11F001
:1022D0006CEF11F0010E216E21B002D0829001D07E
:1022E00082801200056E0150D8A479EF11F07BEFC7
:1022F00011F086EF11F03F5007E1020E3E5CD8B0BE
:1023000084EF11F086EF11F08AEF11F040C03EF03B
:1023100041C03FF03EB08FEF11F092EF11F0010E8F
:1023200093EF11F0000E066ED8903F323E32000E51
:10233000026E05A09EEF11F0A0EF11F0AAEF11F0D0
:102340000650D8B4A6EF11F0A8EF11F0AAEF11F0E3
:10235000010E026E02B002D0829401D08284000E7F
:10236000036E05A2B6EF11F0B8EF11F0C2EF11F055
:102370000650D8B4BEEF11F0C0EF11F0C2EF11F06B
:10238000010E036E03B002D0829201D08282000E51
:10239000046E05A4CEEF11F0D0EF11F0DAEF11F0DA
:1023A0000650D8B4D6EF11F0D8EF11F0DAEF11F0F3
:1023B000010E046E04B002D0829001D0828012001F
:1023C0002B6E2BB0E6EF11F0EAEF11F02A6A2A2A01
:1023D000EBEF11F02A6A000E82B4010E2A18D8B46D
:1023E000F4EF11F0F7EF11F0010EF8EF11F0000E1D
:1023F00094EC16F02BB2FFEF11F003EF12F02A6A03
:102400002A2A04EF12F02A6A000E82B2010E2A185C
:10241000D8B40DEF12F010EF12F0010E11EF12F020
:10242000000E94EC16F02BB418EF12F01CEF12F023
:102430002A6A2A2A1DEF12F02A6A000E82B0010EC3
:102440002A18D8B426EF12F029EF12F0010E2AEF65
:1024500012F0000E94EC16F0000E82B8010E28184F
:10246000D8B435EF12F038EF12F0010E39EF12F058
:10247000000E94EC16F0000E82B6010E2918D8B4A6
:1024800044EF12F047EF12F0010E48EF12F0000E89
:1024900094EC16F01200000E826E000E836E000E99
:1024A000846E400E876EAD0E886E5A0E896E000ED9
:1024B0000F011C6F000E146F000E0C6F000E286FC2
:1024C000800E136F000E0B6F000E1B6FA00E0A6FB5
:1024D000000E126F000E1A6F0969116919690869F7
:1024E00010691869080E256F059D068D079D0D91D1
:1024F0000D9B0E910E8B0F810F8BC20E1E6E300E38
:102500001F6E57EC18F0C40E1E6E300E1F6E52EC8C
:1025100018F0C60E1E6E300E1F6E4DEC18F00E0138
:10252000BD890B0E266F1C0EF26F1E0EF06F0A0E89
:10253000256F130E226F110E236F160E246F1B0EC4
:10254000EE6F190EF46F1A0EEB6F060E1F6F080E6A
:10255000216F140E206F180EF76F1D0EF96F120009
:10256000000E246E000E236E250E2324D96E000E5D
:102570002420DA6E20C01EF021C01FF023EC18F0DA
:10258000DF6E204A212A234A242A24BED1EF12F0EA
:10259000245009E1030E235CD8A0D1EF12F0D3EF51
:1025A00012F0B4EF12F025502618D8B4DAEF12F07A
:1025B000DCEF12F0E5EF12F025502718D8A4E3EF76
:1025C00012F0E5EF12F0E8EF12F02550F5EF12F0FF
:1025D00027502618D8A4EFEF12F0F1EF12F0F4EF25
:1025E00012F02650F5EF12F02250120017EC16F000
:1025F000D8EC14F00001866F88BC01EF13F003EFF4
:1026000013F015EF13F0020E8619D8B40AEF13F089
:102610000CEF13F015EF13F08DBE11EF13F013EF65
:1026200013F015EF13F02EEC18F0FBEC15F0000191
:102630008605D8A41EEF13F020EF13F022EF13F05D
:10264000B9EC13F0F28EF28C020E00018619D8A4B8
:102650002CEF13F02EEF13F030EF13F095EC07F0A2
:10266000840E1E6E300E1F6E48EC18F0030036EF1D
:1026700013F04AEF00F08DBA40EF13F043EF13F080
:10268000010E44EF13F0000E286E2850D8A44BEF33
:1026900013F04DEF13F053EF13F0000E276E000E02
:1026A000266E56EF13F03CC026F0276A26C029F0AC
:1026B0003B502918D8B45FEF13F061EF13F064EFCB
:1026C00013F0295022EC10F03D502918D8B46BEFCC
:1026D00013F06EEF13F082866FEF13F0829628B03E
:1026E00002D0829801D08288010E1E6E295004EC1F
:1026F00011F012008DBA7FEF13F082EF13F0010E8C
:1027000083EF13F0000E0B6E0B50D8A48AEF13F07A
:102710008CEF13F092EF13F0000E0A6E000E096EAC
:1027200095EF13F03CC009F00A6A09C00CF03B5069
:102730000C18D8B49EEF13F0A0EF13F0A3EF13F032
:102740000C5093EC10F03D500C18D8B4AAEF13F0D5
:10275000ADEF13F08286AEEF13F082960BB002D08D
:10276000829801D08288010E016E0C5072EC11F03B
:10277000120082A8BEEF13F0C1EF13F08286C2EF01
:1027800013F0829682B6C7EF13F0CAEF13F0828877
:10279000CBEF13F0829882A8D0EF13F0D3EF13F0B1
:1027A0008280D4EF13F0829082B0D9EF13F0DCEF87
:1027B00013F08282DDEF13F0829282B2E2EF13F027
:1027C000E5EF13F08284E6EF13F08294150E1F6E8E
:1027D0004B0E1E6EBE0EE82EFED71E2EFCD71F2EF1
:1027E000FAD700D0B9EF13F012001E6E1EB002D05F
:1027F000839601D0838683B600EF14F003EF14F0C4
:10280000838404EF14F0839483B409EF14F00CEF85
:1028100014F0848C0DEF14F0849C84BC12EF14F03F
:1028200015EF14F0848216EF14F0849284B21BEF3B
:1028300014F01EEF14F084861FEF14F0849684B613
:1028400024EF14F027EF14F0848828EF14F0849814
:102850001200216E000EF5EC13F03BEF14F08488AB
:1028600058EF14F0848658EF14F0848258EF14F077
:10287000848C58EF14F021501F6E206A2050000AFB
:10288000D8B445EF14F058EF14F01F50000AD8B434
:102890002FEF14F0010AD8B432EF14F0030AD8B4C1
:1028A00035EF14F0010AD8B438EF14F058EF14F0F3
:1028B000E9EC17F012002A6E000E2B6E2A503B181E
:1028C000D8A465EF14F067EF14F07BEF14F02850F4
:1028D0003C18D8A46EEF14F070EF14F07BEF14F0F6
:1028E00029503D18D8A477EF14F079EF14F07BEF5E
:1028F00014F0010E2B6E2B50D8A481EF14F084EF4E
:1029000014F0010E85EF14F0000E94EC16F0120096
:10291000828082828284828682A891EF14F094EF72
:1029200014F0828895EF14F08298150E1F6E4B0EEE
:102930001E6EBE0EE82EFED71E2EFCD71F2EFAD717
:1029400000D0150E1F6E4B0E1E6EBE0EE82EFED76B
:102950001E2EFCD71F2EFAD700D08CEF14F01200D9
:102960003A50D8A4B6EF14F0B8EF14F0BEEF14F05C
:10297000000E2B6E000E2A6EC2EF14F0000E2B6EAE
:10298000300E2A6E0E0177513F0B286E296A2A50AD
:1029900028180AE12B502918D8B4D1EF14F0D4EF3D
:1029A00014F0010ED5EF14F0000E94EC16F01200A6
:1029B000000E216E040E206E010E226EB0EC12F09D
:1029C000286E2850D8B4E7EF14F0E9EF14F0F1EFD7
:1029D00014F02804D8A4EFEF14F0F1EF14F0F4EFA2
:1029E00014F02850FCEF14F0879C520E8816A50EA8
:1029F0008916838A828C020E12001F6E8486848858
:102A00001FB005EF15F008EF15F0848209EF15F0FF
:102A100084921FB20EEF15F011EF15F0848C12EFB7
:102A200015F0849C1FB417EF15F01AEF15F083848E
:102A30001BEF15F083941EB002D0839601D08386DD
:102A40001200000EF2BE010E216E310E7B6E1F5081
:102A50007A6E1EC079FF20C07CFF7F8EF29E550EDD
:102A6000816EAA0E816E808880B839EF15F03BEF39
:102A700015F034EF15F021B002D0F29E01D0F28EA5
:102A80007F9E1200000EF2BE010E046E310E7B6EB0
:102A900002507A6E01C079FF03C07CFF7F8EF29EE8
:102AA000550E816EAA0E816E808880B85AEF15F09F
:102AB0005CEF15F055EF15F004B002D0F29E01D096
:102AC000F28E7F9E1200000E266E000E256E22C032
:102AD0001EF023C01FF024C020F021EC15F0224A84
:102AE000232A254A262A26BE7FEF15F0265009E123
:102AF000030E255CD8A07FEF15F081EF15F067EF8E
:102B000015F012000F0105AD88EF15F08AEF15F0F2
:102B10008CEF15F07CEC16F00F010DA192EF15F083
:102B200094EF15F096EF15F064EC16F00F010DAB75
:102B30009CEF15F09EEF15F0A0EF15F04CEC16F0A1
:102B40001200000E096E000E086E05C001F006C0EE
:102B500002F007C003F042EC15F0054A062A084AC5
:102B6000092A09BEBDEF15F0095009E1030E085C02
:102B7000D8A0BDEF15F0BFEF15F0A5EF15F01200CE
:102B8000B80EF66E300EF76E000EF86E00EE3EF0E8
:102B900010EE04F00900F5CFEEFFE550E150FAE148
:102BA0000001886B876B3D6A3C6A3B6A3A6A396A06
:102BB000386A429042920001F6EF12F0900ED56E04
:102BC000F30ED36EE40ED26ED250D3CF20F0216A32
:102BD00020C021F0206A2010306E2150316E0E018D
:102BE000C59BBD8BC00E1E6E300E1F6E48EC18F0DC
:102BF000900ED46E1200C1EC16F03DC03CF03B6864
:102C00003BEC13F0B3EC17F06A0E1E6E1E0E1F6E37
:102C100057EC18F06A0E1E6E1E0E1F6E52EC18F066
:102C20006A0E1E6E1E0E1F6E4DEC18F012005EEC4A
:102C300018F0DBEC17F04BEC12F001EC18F071EC33
:102C400017F02FEC17F019EC17F0D7EC16F003EC97
:102C500017F0EDEC16F045EC17F05BEC17F0DEEC3E
:102C600015F012000E01C59B3150D36E30C0D2FF5B
:102C7000384A392A395009E1020E385CD8A043EFAE
:102C800016F045EF16F04BEF16F087EC17F0000E3C
:102C9000396E000E386E120032503310D8B453EF34
:102CA00016F055EF16F061EF16F002D861EF16F04E
:102CB0000500FA6E3250FD6E3350FE6EFF6AFA5018
:102CC00012000F010D9B120034503510D8B46BEF79
:102CD00016F06DEF16F079EF16F002D879EF16F0D6
:102CE0000500FA6E3450FD6E3550FE6EFF6AFA50E4
:102CF00012000F010D91120036503710D8B483EF37
:102D000016F085EF16F091EF16F002D891EF16F05D
:102D10000500FA6E3650FD6E3750FE6EFF6AFA50AF
:102D200012000F01059D1200276E2750D8B49BEFAB
:102D300016F09DEF16F09FEF16F0AAEF16F0F29E38
:102D4000000E236E040E226E010E246E63EC15F04D
:102D5000B9EC13F01200276E070E2764B2EF16F0DD
:102D6000B4EF16F0B6EF16F0000E276E000E236ECD
:102D7000000E226E27C024F063EC15F027C03DF052
:102D80001200000E216E000E206EFF0E226EB0ECBF
:102D900012F0286E070E2864D0EF16F0D2EF16F06E
:102DA000D4EF16F0000E286E28C03DF01200000E81
:102DB0000E016E6F000E6F6F000E706F000E716F60
:102DC000000E726F000E736F000E746F000E756F41
:102DD000000E766F800E6D6F1200020E0E01646F92
:102DE000210E656F220E666F250E676F260E686FC7
:102DF000A00E696F000E6A6F000E6B6F000E6C6F95
:102E0000800E636F1200000E0E015A6F020E5B6F90
:102E1000050E5C6F000E5D6F280E5E6F020E5F6F19
:102E2000080E606F900E616F000E626F840E596F16
:102E30001200000E0E01506F020E516F040E526F01
:102E4000000E536F280E546F020E556F080E566F0A
:102E5000900E576F000E586F840E4F6F1200000EC9
:102E60000E01466F020E476F070E486F000E496F46
:102E7000280E4A6F020E4B6F080E4C6F900E4D6F6E
:102E8000000E4E6F840E456F1200000E0E013C6F57
:102E9000020E3D6F060E3E6F000E3F6F280E406F14
:102EA000020E416F080E426F900E436F000E446F8A
:102EB000840E3B6F1200000E0E01326F020E336F54
:102EC000030E346F000E356F280E366F020E376F0B
:102ED000080E386F900E396F000E3A6F840E316F06
:102EE0001200000E0E01286F020E296F010E2A6FCC
:102EF000000E2B6F280E2C6F020E2D6F080E2E6FFA
:102F0000900E2F6F000E306F840E276F12002E5020
:102F10002F10D8B48EEF17F090EF17F09CEF17F04A
:102F200002D89CEF17F00500FA6E2E50FD6E2F5060
:102F3000FE6EFF6AFA50120012000A6E070E0A6453
:102F4000A4EF17F0A6EF17F0A8EF17F0000E0A6E27
:102F5000000E066E000E056E0AC007F0A1EC15F01B
:102F60000AC03DF01200000E0E016E6F050EE82E35
:102F7000FED700F0800E0E016E6F050EE82EFED714
:102F800000F0000E0E016E6F828E828A1200000E1B
:102F90000E016E6F050EE82EFED700F0800E0E01BA
:102FA0006E6F050EE82EFED700F0000E0E016E6F5C
:102FB000828E828A1200000E0E01DC6F000EDD6F21
:102FC000000EDE6F000EDF6F000EE06F000EE16F8F
:102FD00012008390050EE82EFED700F08380050EC8
:102FE000E82EFED700F083901200828C050EE82EAA
:102FF000FED700F0829C050EE82EFED700F0828CF2
:103000001200600E0E01D36F000ED56F000ED76F49
:10301000080ED96F000ED86F12001E6E1EB002D0BF
:10302000839A01D0838A050EE82EFED700F01200A5
:103030000E0163BB1EEF18F021EF18F0010E22EF16
:1030400018F0000E1200310E7B6E1F507A6E1EC0FB
:1030500079FF808000F000F07C50120038EC18F00E
:10306000810E0F011A6F000E416E850E406E120028
:10307000010E3A6E800E0E015A6F5ACE50FE5A0E55
:10308000696F1200000E016E3B5072EC11F01200DD
:103090001EC02EF01FC02FF012001EC032F01FC045
:1030A00033F012001EC034F01FC035F012001EC0F5
:1030B00036F01FC037F0120001000F01F29A120023
:0830C0001200120012001200C0
:020000040020DA
:10000000FFFFFFFFFFFFFFFFFFFFFFFFFFFFFFFF00
:10001000FFFFFFFFFFFFFFFFFFFFFFFFFFFFFFFFF0
:10002000FFFFFFFFFFFFFFFFFFFFFFFFFFFFFFFFE0
:10003000FFFFFFFFFFFFFFFFFFFFFFFFFFFFFFFFD0
:10004000FFFFFFFFFFFFFFFFFFFFFFFFFFFFFFFFC0
:10005000FFFFFFFFFFFFFFFFFFFFFFFFFFFFFFFFB0
:10006000FFFFFFFFFFFFFFFFFFFFFFFFFFFFFFFFA0
:10007000FFFFFFFFFFFFFFFFFFFFFFFFFFFFFFFF90
:10008000FFFFFFFFFFFFFFFFFFFFFFFFFFFFFFFF80
:10009000FFFFFFFFFFFFFFFFFFFFFFFFFFFFFFFF70
:1000A000FFFFFFFFFFFFFFFFFFFFFFFFFFFFFFFF60
:1000B000FFFFFFFFFFFFFFFFFFFFFFFFFFFFFFFF50
:1000C000FFFFFFFFFFFFFFFFFFFFFFFFFFFFFFFF40
:1000D000FFFFFFFFFFFFFFFFFFFFFFFFFFFFFFFF30
:1000E000FFFFFFFFFFFFFFFFFFFFFFFFFFFFFFFF20
:1000F000FFFFFFFFFFFFFFFFFFFFFFFFFFFFFFFF10
:020000040030CA
:0C0000008CFFFFFF9FFFFFFFFFFFFFFFD3
:020000040031C9
:08000000FFFFFFFFFFFFFFFF00
:00000001FF
