:020000040000FA
:040000004AEF00F0D3
:100008004282FACF16F0FBCF17F0F3CF18F0F4CFF7
:1000180019F0F6CF1AF0F7CF1BF0F8CF1CF0F5CF98
:100028001DF00E01BDAB1BEF00F01DEF00F028EF37
:1000380000F0C5AB22EF00F024EF00F028EF00F04D
:100048003DEC16F038EF00F0BDA92DEF00F02FEFD2
:1000580000F038EF00F0C5A934EF00F036EF00F0FB
:1000680038EF00F0ABEC15F01DC0F5FF1CC0F8FF31
:100078001BC0F7FF1AC0F6FF19C0F4FF18C0F3FF42
:1000880017C0FBFF16C0FAFF429211002CEF15F0C3
:100F000000000102030100020302000103030001CB
:100F100002000201030102000302030001030200B8
:100F200001010304050400000000F29E000182BFDD
:100F3000A3EF07F082510AE1040E815DD8A0A3EF70
:100F400007F0A6EF07F0010EA7EF07F0000E9FECE9
:100F500016F081C076F082C077F0000E286E000E89
:100F6000296E000EF5EC13F0000E216E000E206EBF
:100F7000000E226E8FEC12F0FF0AD8B4C2EF07F019
:100F8000C5EF07F0010EC6EF07F0000E9FEC16F05C
:100F9000000E216E040E206E000E226E8FEC12F0F9
:100FA000FF0AD8B4D6EF07F0D9EF07F0010EDAEF59
:100FB00007F0000E9FEC16F0000E00016E6F84B873
:100FC000E4EF07F0E6EF07F055EF08F08EBAEBEF2D
:100FD00007F0EDEF07F055EF08F084B6F2EF07F0F9
:100FE000F4EF07F055EF08F08EB4F9EF07F0FBEFE0
:100FF00007F055EF08F084B200EF08F002EF08F0B8
:1010000055EF08F08EB007EF08F009EF08F055EF44
:1010100008F084BC0EEF08F010EF08F055EF08F070
:101020008EBE15EF08F017EF08F055EF08F083B407
:101030001CEF08F01EEF08F055EF08F08DB223EF1B
:1010400008F025EF08F055EF08F083B62AEF08F016
:101050002CEF08F055EF08F08DB831EF08F033EFC2
:1010600008F055EF08F034EC18F00009D8A43BEF75
:1010700008F03DEF08F055EF08F08DAA42EF08F0B8
:1010800044EF08F055EF08F083B049EF08F04BEF5C
:1010900008F055EF08F082AC50EF08F052EF08F07E
:1010A00055EF08F0010E00016E6F00016E51D8A4DB
:1010B0005CEF08F05FEF08F0010E60EF08F0000E43
:1010C0009FEC16F039C028F039504FEC14F0000EA8
:1010D00000016F6F82A86FEF08F071EF08F08FEFDB
:1010E00008F082A676EF08F078EF08F08FEF08F0AE
:1010F00082B47DEF08F07FEF08F08FEF08F082B246
:1011000084EF08F086EF08F08FEF08F082B08BEFE5
:1011100008F08DEF08F08FEF08F0010E6F6F6F5140
:10112000D8A495EF08F098EF08F0010E99EF08F0B9
:10113000000E9FEC16F0000E0001716F000E706F34
:1011400071BFACEF08F0715109E1020E705DD8A0DB
:10115000ACEF08F0AEEF08F0B0EF08F079EF0AF06E
:1011600070057111D8A4B7EF08F0B9EF08F0BBEF24
:1011700008F054EC18F0000E00017F6F070E7F6539
:10118000C4EF08F0C6EF08F0C8EF08F009EF09F067
:101190007F5117EC10F0000E00017A6F000E796F8E
:1011A0007ABFDCEF08F07A5109E1040E795DD8A02E
:1011B000DCEF08F0DEEF08F0E0EF08F006EF09F0F2
:1011C0007951C3EC13F000017F51040D010E6B6FD8
:1011D0000F0E6C6FF3506B27F4506C2379516B2713
:1011E0007A516C236BC0F6FF6CC0F7FFF86A0800F9
:1011F000F550606F616B000E626F000E636F61EC03
:101200000CF00001794B7A2BD0EF08F07F2BBEEF6A
:1012100008F0000E8FEC13F0838405EC18F0FF0E3D
:101220000001616F6069010E626F000E636F61EC17
:101230000CF0000E8FEC13F0838605EC18F0FF0E17
:101240000001616F6069000E626F010E636F61ECF7
:101250000CF0010E8FEC13F0000E0001736F000E06
:10126000726F73BF3DEF09F0735109E1020E725DB9
:10127000D8A03DEF09F03FEF09F041EF09F06DEF25
:1012800009F005EC18F0000E0001616F0F0E606FA1
:10129000010E626F010E636F61EC0CF00001725180
:1012A0007311D8B456EF09F058EF09F05CEF09F06C
:1012B0004CEC15F05EEF09F011EC18F0FF0E000198
:1012C000616F6069000E626F000E636F61EC0CF07D
:1012D0000001724B732B31EF09F0000E8FEC13F00D
:1012E000F28E050EE82EFED700F0F29E020E0001EF
:1012F00076256B6F000E77216C6F81516B190AE1B7
:1013000082516C19D8B487EF09F08AEF09F0010E09
:101310008BEF09F0000E9FEC16F081C076F082C0D2
:1013200077F0000E00017F6F070E7F659AEF09F0DE
:101330009CEF09F09EEF09F05AEF0AF08DBAA3EF87
:1013400009F0A6EF09F0010EA7EF09F0000E9FECDF
:1013500016F03D683C68000E1E6E00017F51C6EC21
:1013600014F0F28E05EC18F0F29E0001764B772B0C
:1013700024EC14F07FC028F0FF0E296E00017F518D
:10138000F5EC13F0010E286E000E296E00017F515E
:10139000A5EC0FF0150E00016C6F4B0E6B6FBE0EBF
:1013A000E82EFED76B2FFCD76C2FFAD700F03D68E4
:1013B0003C68010E1E6E00017F51C6EC14F0F28EE7
:1013C00005EC18F0F29E0001764B772B24EC14F01C
:1013D0007FC028F07FC029F000017F51F5EC13F0A9
:1013E000010E286E010E296E00017F51A5EC0FF051
:1013F000150E00016C6F4B0E6B6FBE0EE82EFED704
:101400006B2FFCD76C2FFAD700F0F28E000E29EC70
:1014100018F0F29E0001764B772B7FC028F07FC03A
:1014200029F0000EF5EC13F0000E286E00017F513C
:10143000D8B41DEF0AF020EF0AF0010E21EF0AF0F8
:10144000000E296E000EA5EC0FF0150E00016C6F5A
:101450004B0E6B6FBE0EE82EFED76B2FFCD76C2F9A
:10146000FAD700F0F28E010E29EC18F0F29E00017E
:10147000764B772B7FC028F07FC029F07F51F5ECA9
:1014800013F0010E286E010E296E00017F51A5ECAC
:101490000FF0150E00016C6F4B0E6B6FBE0EE82E39
:1014A000FED76B2FFCD76C2FFAD700F000017F2BF3
:1014B00094EF09F0000E8FEC13F0F28E050EE82E7B
:1014C000FED700F0F29E0001765181190AE17751B2
:1014D0008219D8B46EEF0AF071EF0AF0010E72EFC4
:1014E0000AF0000E9FEC16F00001704B712BA0EF7C
:1014F00008F0F28E000E756F000E746F75BF8AEFE4
:101500000AF0755109E1040E745DD8A08AEF0AF063
:101510008CEF0AF08EEF0AF0C5EF0AF0010E29EC0D
:1015200018F000017451C3EC13F0070E3B18D8B447
:101530009CEF0AF09FEF0AF0010EA0EF0AF0000EF8
:101540009FEC16F0000E29EC18F0070E3B18D8B4EB
:10155000ACEF0AF0AFEF0AF0010EB0EF0AF0000EA8
:101560009FEC16F011EC18F03B50D8B4BAEF0AF02B
:10157000BDEF0AF0010EBEEF0AF0000E9FEC16F070
:101580000001744B752B7EEF0AF0000E786F030E8E
:101590007865CDEF0AF0CFEF0AF0E5EF0AF020EF23
:1015A0000CF0000ECDEC17F002EF0BF0010ECDECBD
:1015B00017F002EF0BF0010EE9EC17F002EF0BF061
:1015C000010EDBEC17F002EF0BF078516B6F6C6BD8
:1015D0006C51000AD8B4EFEF0AF002EF0BF06B5138
:1015E000000AD8B4D1EF0AF0010AD8B4D6EF0AF055
:1015F000030AD8B4DBEF0AF0010AD8B4E0EF0AF02E
:1016000002EF0BF011EC18F039C028F039504FEC14
:1016100014F0000E00017C6F000E7B6F7CBF1AEF90
:101620000BF07C5109E1040E7B5DD8A01AEF0BF0A2
:101630001CEF0BF01EEF0BF097EF0BF07B51C3ECA0
:1016400013F04DEF0BF039C028F039504FEC14F087
:101650008BEF0BF039C028F039504FEC14F08BEFC2
:101660000BF039C028F03A504FEC14F08BEF0BF030
:101670003AC028F039504FEC14F08BEF0BF039C022
:1016800028F039504FEC14F08BEF0BF039C028F0F4
:1016900039504FEC14F08BEF0BF084C06BF07BC033
:1016A0006CF07CC06DF000016B2B5AEF0BF06D35C8
:1016B0006D336C336B2F57EF0BF0000183516C5F70
:1016C000000E6D5B6D51000AD8B46DEF0BF0FF0A90
:1016D000D8B480EF0BF08BEF0BF06C51000AD8B44C
:1016E00031EF0BF0010AD8B438EF0BF0030AD8B48D
:1016F0003FEF0BF0010AD8B446EF0BF08BEF0BF085
:101700006C51FE0AD8B423EF0BF0010AD8B42AEFCB
:101710000BF08BEF0BF011EC18F039C028F03950BA
:101720004FEC14F000017B4B7C2B0EEF0BF0000E06
:101730007E6F000E7D6F7EBFA7EF0BF07E5109E13B
:10174000040E7D5DD8A0A7EF0BF0A9EF0BF0ABEF77
:101750000BF01DEF0CF07D51C3EC13F0DAEF0BF042
:1017600039C028F039504FEC14F018EF0CF039C0A4
:1017700028F039504FEC14F018EF0CF039C028F075
:101780003A504FEC14F018EF0CF03AC028F03A50F1
:101790004FEC14F018EF0CF03AC028F03A504FEC30
:1017A00014F018EF0CF03AC028F03A504FEC14F057
:1017B00018EF0CF084C06BF07DC06CF07EC06DF053
:1017C00000016B2BE7EF0BF06D356D336C336B2F36
:1017D000E4EF0BF0000183516C5F000E6D5B6D5107
:1017E000000AD8B4FAEF0BF0FF0AD8B40DEF0CF0F2
:1017F00018EF0CF06C51000AD8B4BEEF0BF0010AE0
:10180000D8B4C5EF0BF0030AD8B4CCEF0BF0010A43
:10181000D8B4D3EF0BF018EF0CF06C51FE0AD8B42B
:10182000B0EF0BF0010AD8B4B7EF0BF018EF0CF0E3
:1018300000017D4B7E2B9BEF0BF0782BC7EF0AF05E
:10184000F29E000E7F6F070E7F6529EF0CF02BEFE5
:101850000CF02DEF0CF053EF0CF07F51B6EC16F0BE
:1018600000017F513D18D8B438EF0CF03BEF0CF07D
:10187000010E3CEF0CF0000E9FEC16F03D68CCEC36
:1018800016F000017F513D18D8B449EF0CF04CEF31
:101890000CF0010E4DEF0CF0000E9FEC16F0000165
:1018A0007F2B23EF0CF0000E236E040E226E000E31
:1018B000246E8CEC15F0000EB6EC16F079EC14F0FA
:1018C00012003DEF0EF0000E0001646F8EBA6BEF58
:1018D0000CF06DEF0CF0A3EF0CF08EB472EF0CF087
:1018E00074EF0CF0A3EF0CF08EB079EF0CF07CEFFE
:1018F0000CF0010E7DEF0CF0000E3618D8A483EF2B
:101900000CF085EF0CF0A3EF0CF08EBE8AEF0CF01C
:101910008DEF0CF0010E8EEF0CF0000E3618D8A4EF
:1019200094EF0CF096EF0CF0A3EF0CF034EC18F001
:101930000009D8A49EEF0CF0A0EF0CF0A3EF0CF080
:10194000010E0001646F00016451D8A4AAEF0CF0ED
:10195000ADEF0CF0010EAEEF0CF0000E9FEC16F0A8
:101960006AEF0EF0000E0001656F8EAABAEF0CF060
:10197000BCEF0CF0F2EF0CF08EB4C1EF0CF0C3EF43
:101980000CF0F2EF0CF08EB0C8EF0CF0CBEF0CF0D7
:10199000010ECCEF0CF0000E3618D8A4D2EF0CF0EC
:1019A000D4EF0CF0F2EF0CF08EBED9EF0CF0DCEFC0
:1019B0000CF0010EDDEF0CF0000E3618D8A4E3EFAA
:1019C0000CF0E5EF0CF0F2EF0CF034EC18F03618F8
:1019D000D8A4EDEF0CF0EFEF0CF0F2EF0CF0010EED
:1019E0000001656F00016551D8A4F9EF0CF0FCEF20
:1019F0000CF0010EFDEF0CF0000E9FEC16F06AEFFC
:101A00000EF0000E0001666F8EBA09EF0DF00BEFBD
:101A10000DF041EF0DF08EA410EF0DF012EF0DF070
:101A200041EF0DF08EB017EF0DF01AEF0DF0010E33
:101A30001BEF0DF0000E3618D8A421EF0DF023EFA8
:101A40000DF041EF0DF08EBE28EF0DF02BEF0DF0F5
:101A5000010E2CEF0DF0000E3618D8A432EF0DF069
:101A600034EF0DF041EF0DF034EC18F03618D8A437
:101A70003CEF0DF03EEF0DF041EF0DF0010E0001D7
:101A8000666F00016651D8A448EF0DF04BEF0DF0E2
:101A9000010E4CEF0DF0000E9FEC16F06AEF0EF009
:101AA000000E0001676F8EBA58EF0DF05AEF0DF07F
:101AB00090EF0DF08EB45FEF0DF061EF0DF090EF51
:101AC0000DF08EB066EF0DF069EF0DF0010E6AEFCC
:101AD0000DF0000E3618D8B470EF0DF072EF0DF067
:101AE00090EF0DF08EBE77EF0DF07AEF0DF0010E56
:101AF0007BEF0DF0000E3618D8A481EF0DF083EFC8
:101B00000DF090EF0DF034EC18F00009D8B48BEF25
:101B10000DF08DEF0DF090EF0DF0010E0001676FED
:101B200000016751D8A497EF0DF09AEF0DF0010E68
:101B30009BEF0DF0000E9FEC16F06AEF0EF0000E1A
:101B40000001686F8EBAA7EF0DF0A9EF0DF0DFEF7F
:101B50000DF08EB4AEEF0DF0B0EF0DF0DFEF0DF045
:101B60008EB0B5EF0DF0B8EF0DF0010EB9EF0DF03E
:101B7000000E3618D8A4BFEF0DF0C1EF0DF0DFEF67
:101B80000DF08EBEC6EF0DF0C9EF0DF0010ECAEFDD
:101B90000DF0000E3618D8B4D0EF0DF0D2EF0DF0E6
:101BA000DFEF0DF034EC18F00009D8B4DAEF0DF0E7
:101BB000DCEF0DF0DFEF0DF0010E0001686F0001AA
:101BC0006851D8A4E6EF0DF0E9EF0DF0010EEAEF51
:101BD0000DF0000E9FEC16F06AEF0EF0000E000103
:101BE000696F8EAAF6EF0DF0F8EF0DF02EEF0EF004
:101BF0008EA4FDEF0DF0FFEF0DF02EEF0EF08EB086
:101C000004EF0EF007EF0EF0010E08EF0EF0000EDD
:101C10003618D8B40EEF0EF010EF0EF02EEF0EF0D7
:101C20008EBE15EF0EF018EF0EF0010E19EF0EF04C
:101C3000000E3618D8B41FEF0EF021EF0EF02EEF85
:101C40000EF034EC18F00009D8B429EF0EF02BEFA9
:101C50000EF02EEF0EF0010E0001696F00016951C8
:101C6000D8A435EF0EF038EF0EF0010E39EF0EF07C
:101C7000000E9FEC16F06AEF0EF060C028F061C015
:101C800029F02950000AD8B44CEF0EF0FF0AD8B45E
:101C900063EF0EF06AEF0EF02850000AD8B4B2EFEE
:101CA0000CF0010AD8B401EF0DF0030AD8B450EFDC
:101CB0000DF0010AD8B49FEF0DF00C0AD8B4EEEF86
:101CC0000DF06AEF0EF02850FF0AD8B463EF0CF065
:101CD0006AEF0EF0000E00016A6F8DB272EF0EF027
:101CE00075EF0EF0010E76EF0EF0000E6219D8A41B
:101CF0007CEF0EF07EEF0EF091EF0EF08DB883EFDB
:101D00000EF086EF0EF0010E87EF0EF0000E631955
:101D1000D8A48DEF0EF08FEF0EF091EF0EF0010EC4
:101D20006A6F6A51D8A497EF0EF09AEF0EF0010E89
:101D30009BEF0EF0000E9FEC16F0120077CE15F020
:101D40000001814B822B3650D8B4A9EF0EF0ABEFD7
:101D50000EF0ADEF0EF0300E151A155038140009C4
:101D6000D8B4B5EF0EF0B7EF0EF0BCEF0EF03AB00E
:101D700002D0829E01D0828E155037140009D8B44B
:101D8000C4EF0EF0C6EF0EF0DFEF0EF03AB002D067
:101D9000829A01D0828ADFEF0EF0A4EF0FF039B003
:101DA00002D0829E01D0828E82BED9EF0EF0DCEF8F
:101DB0000EF0828ADDEF0EF0829A01EF0FF01550DF
:101DC000330B0D6E0E6A0E50000AD8B4EAEF0EF017
:101DD00001EF0FF00D50000AD8B4CFEF0EF0010A5A
:101DE000D8B4CDEF0EF0030AD8B4A4EF0FF0120A66
:101DF000D8B4A4EF0FF0300AD8B4A4EF0FF001EF7D
:101E00000FF0070E3B6407EF0FF009EF0FF00BEF39
:101E10000FF0A4EF0FF0000E136E010E146E000E03
:101E2000126E000E116E3BEF0FF015A01AEF0FF0BF
:101E30001CEF0FF06CEF0FF0145013126CEF0FF05B
:101E400015A225EF0FF027EF0FF06CEF0FF01CEF4E
:101E50000FF015A82EEF0FF030EF0FF06CEF0FF032
:101E60001CEF0FF015AA37EF0FF039EF0FF06CEF02
:101E70000FF01CEF0FF03B50040D010E0D6E0F0E16
:101E80000E6EF3500D26F4500E2211500D261250F6
:101E90000E220DC0F6FF0EC0F7FFF86A0800F550DD
:101EA0000F6E106A1050000AD8B459EF0FF06CEFA3
:101EB0000FF00F50000AD8B415EF0FF0010AD8B494
:101EC00020EF0FF0030AD8B429EF0FF0010AD8B4BD
:101ED00032EF0FF06CEF0FF0D8901436114A122A3F
:101EE00012BE7CEF0FF0125009E1040E115CD8A075
:101EF0007CEF0FF07EEF0FF03BEF0FF015A483EFB8
:101F00000FF085EF0FF087EF0FF0145013121350FE
:101F1000030B030AD8A48FEF0FF091EF0FF0A2EF9D
:101F20000FF06CEC15F01340E8423F0B070B3C6ED2
:101F300015A69DEF0FF09FEF0FF0A2EF0FF03C50B2
:101F4000A8EC17F014EC13F012000001616F00010F
:101F500061B1ADEF0FF0B1EF0FF0606B602BB3EF3D
:101F60000FF00001606B000E82B4010E6019D8B44E
:101F7000BCEF0FF0BFEF0FF0010EC0EF0FF0000E3F
:101F80009FEC16F0000161B3C8EF0FF0CCEF0FF03B
:101F9000606B602BCEEF0FF00001606B000E82B221
:101FA000010E6019D8B4D7EF0FF0DAEF0FF0010E81
:101FB000DBEF0FF0000E9FEC16F0000161B5E3EFD0
:101FC0000FF0E7EF0FF0606B602BE9EF0FF000010F
:101FD000606B000E82B0010E6019D8B4F2EF0FF002
:101FE000F5EF0FF0010EF6EF0FF0000E9FEC16F07C
:101FF000000E82B8010E2818D8B401EF10F004EFDB
:1020000010F0010E05EF10F0000E9FEC16F0000E20
:1020100082B6010E2918D8B410EF10F013EF10F0AB
:10202000010E14EF10F0000E9FEC16F01200226E5D
:10203000070E22641EEF10F020EF10F022EF10F0D8
:10204000000E226E000E256E000E246E210E24243A
:10205000F66E0F0E2520F76EF86A000EF8220800C3
:10206000F5CF23F044EF10F023C02AFE75EF10F0F7
:1020700023C034FE75EF10F023C052FE75EF10F050
:1020800023C05CFE75EF10F02250040D010E1E6E91
:102090000F0E1F6EF3501E26F4501F2224501E26D2
:1020A00025501F221EC0F6FF1FC0F7FFF86A080068
:1020B000F550206E216A2150000AD8B462EF10F06A
:1020C00075EF10F02050000AD8B434EF10F0010A78
:1020D000D8B438EF10F0030AD8B43CEF10F0010A7E
:1020E000D8B440EF10F075EF10F0244A252A25BE31
:1020F00083EF10F0255009E1040E245CD8A083EF93
:1021000010F085EF10F026EF10F022C03BF0120027
:10211000056E070E05648FEF10F091EF10F093EF4E
:1021200010F0000E056E000E076E000E066E210EFA
:102130000624F66E0F0E0720F76EF86A000EF822DE
:102140000800F5CF08F0B5EF10F008C02AFEE6EF62
:1021500010F008C034FEE6EF10F008C052FEE6EFC3
:1021600010F008C05CFEE6EF10F00550040D010E03
:10217000016E0F0E026EF3500126F450022206503B
:1021800001260750022201C0F6FF02C0F7FFF86ADD
:102190000800F550036E046A0450000AD8B4D3EF67
:1021A00010F0E6EF10F00350000AD8B4A5EF10F0DD
:1021B000010AD8B4A9EF10F0030AD8B4ADEF10F0BB
:1021C000010AD8B4B1EF10F0E6EF10F0064A072A82
:1021D00007BEF4EF10F0075009E1040E065CD8A02A
:1021E000F4EF10F0F6EF10F097EF10F005C03BF0B1
:1021F0001200226E1E50D8A400EF11F002EF11F071
:102200000DEF11F03F5007E1020E3E5CD8B00BEF2E
:1022100011F00DEF11F011EF11F040C03EF041C090
:102220003FF03EB016EF11F019EF11F0010E1AEF6A
:1022300011F0000E236ED8903F323E32000E1F6E1A
:1022400022A025EF11F027EF11F031EF11F023500C
:10225000D8B42DEF11F02FEF11F031EF11F0010E86
:102260001F6E1FB002D0829401D08284000E206EB7
:1022700022A23DEF11F03FEF11F049EF11F0235092
:10228000D8B445EF11F047EF11F049EF11F0010E0E
:10229000206E20B002D0829201D08282000E216E88
:1022A00022A455EF11F057EF11F061EF11F0235018
:1022B000D8B45DEF11F05FEF11F061EF11F0010E96
:1022C000216E21B002D0829001D082801200056E72
:1022D0000150D8A46EEF11F070EF11F07BEF11F008
:1022E0003F5007E1020E3E5CD8B079EF11F07BEF72
:1022F00011F07FEF11F040C03EF041C03FF03EB022
:1023000084EF11F087EF11F0010E88EF11F0000E4D
:10231000066ED8903F323E32000E026E05A093EF5B
:1023200011F095EF11F09FEF11F00650D8B49BEF2C
:1023300011F09DEF11F09FEF11F0010E026E02B04F
:1023400002D0829401D08284000E036E05A2ABEF0E
:1023500011F0ADEF11F0B7EF11F00650D8B4B3EFB4
:1023600011F0B5EF11F0B7EF11F0010E036E03B0ED
:1023700002D0829201D08282000E046E05A4C3EFC7
:1023800011F0C5EF11F0CFEF11F00650D8B4CBEF3C
:1023900011F0CDEF11F0CFEF11F0010E046E04B08B
:1023A00002D0829001D082801200000E826E000E58
:1023B000836E000E846E400E876EAD0E886E5A0ED0
:1023C000896E000E0F011C6F000E146F000E0C6F53
:1023D000000E286F800E136F000E0B6F000E1B6F28
:1023E000000E0A6F000E126F000E1A6F0969116954
:1023F0001969086910691869080E256F059D068D11
:10240000079D0D910D9B0E910E8B0F810F8BFA0E78
:102410001E6E300E1F6E73EC18F0FC0E1E6E300E2A
:102420001F6E6EEC18F0FE0E1E6E300E1F6E69EC05
:1024300018F00E01BD890B0E266F1C0EF26F1E0EDA
:10244000F06F0A0E256F130E226F110E236F160EFA
:10245000246F1B0EEE6F190EF46F1A0EEB6F060E43
:102460001F6F080E216F140E206F180EF76F1D0ED0
:10247000F96F120022EC16F0A1EC14F00001806F4D
:1024800088BC45EF12F047EF12F059EF12F0020E40
:102490008019D8B44EEF12F050EF12F059EF12F04D
:1024A0008DBE55EF12F057EF12F059EF12F04AECD3
:1024B00018F0010ECDEC17F0020E00018019D8B40F
:1024C00064EF12F066EF12F069EF12F0200E0F01C8
:1024D0000A6F06EC16F000018005D8A472EF12F026
:1024E00074EF12F076EF12F053EC13F0F28EF28CE0
:1024F000020E00018019D8A480EF12F082EF12F0D2
:1025000084EF12F095EC07F0BC0E1E6E300E1F6EBD
:1025100064EC18F003008AEF12F04AEF00F0000EAE
:10252000246E000E236E250E2324D96E000E242067
:10253000DA6E20C01EF021C01FF03FEC18F0DF6EF5
:10254000204A212A234A242A24BEB0EF12F0245024
:1025500009E1030E235CD8A0B0EF12F0B2EF12F045
:1025600093EF12F025502618D8B4B9EF12F0BBEF54
:1025700012F0C4EF12F025502718D8A4C2EF12F0C1
:10258000C4EF12F0C7EF12F02550D4EF12F027502D
:102590002618D8A4CEEF12F0D0EF12F0D3EF12F03D
:1025A0002650D4EF12F0225012008DBADAEF12F05A
:1025B000DDEF12F0010EDEEF12F0000E286E285053
:1025C000D8A4E5EF12F0E7EF12F0EDEF12F0000EF5
:1025D000276E000E266EF0EF12F03CC026F0276A40
:1025E00026C029F03B502918D8B4F9EF12F0FBEFC0
:1025F00012F0FEEF12F0295017EC10F03D502918A0
:10260000D8B405EF13F008EF13F0828609EF13F04A
:10261000829628B002D0829801D08288010E1E6E68
:102620002950F9EC10F012008DBA19EF13F01CEFDD
:1026300013F0010E1DEF13F0000E0B6E0B50D8A41B
:1026400024EF13F026EF13F02CEF13F0000E0A6EB8
:10265000000E096E2FEF13F03CC009F00A6A09C0A2
:102660000CF03B500C18D8B438EF13F03AEF13F0DD
:102670003DEF13F00C5088EC10F03D500C18D8B41E
:1026800044EF13F047EF13F0828648EF13F0829681
:102690000BB002D0829801D08288010E016E0C50DE
:1026A00067EC11F0120082A858EF13F05BEF13F003
:1026B00082865CEF13F0829682B661EF13F064EFCE
:1026C00013F0828865EF13F0829882A86AEF13F006
:1026D0006DEF13F082806EEF13F0829082B073EF93
:1026E00013F076EF13F0828277EF13F0829282B2CA
:1026F0007CEF13F07FEF13F0828480EF13F082946D
:10270000150E1F6E4B0E1E6EBE0EE82EFED71E2E31
:10271000FCD71F2EFAD700D053EF13F012001E6E15
:102720001EB002D0839601D0838683B69AEF13F051
:102730009DEF13F083849EEF13F0839483B4A3EF93
:1027400013F0A6EF13F0848CA7EF13F0849C84BCE5
:10275000ACEF13F0AFEF13F08482B0EF13F084927C
:1027600084B2B5EF13F0B8EF13F08486B9EF13F02D
:10277000849684B6BEEF13F0C1EF13F08488C2EFE5
:1027800013F084981200216E000E8FEC13F0D5EF39
:1027900013F08488F2EF13F08486F2EF13F0848252
:1027A000F2EF13F0848CF2EF13F021501F6E206AC9
:1027B0002050000AD8B4DFEF13F0F2EF13F01F50EF
:1027C000000AD8B4C9EF13F0010AD8B4CCEF13F063
:1027D000030AD8B4CFEF13F0010AD8B4D2EF13F044
:1027E000F2EF13F005EC18F012000001606F000E1C
:1027F0000001616F60513B18D8A401EF14F003EFA2
:1028000014F017EF14F028503C18D8A40AEF14F075
:102810000CEF14F017EF14F029503D18D8A413EF63
:1028200014F015EF14F017EF14F0010E616F615101
:10283000D8A41DEF14F020EF14F0010E21EF14F0D6
:10284000000E9FEC16F012003650D8A42AEF14F0B8
:102850002CEF14F033EF14F0000E0001616F000E46
:10286000606F38EF14F0000E0001616F300E606F82
:102870000E0177513F0B286E296A0001605128181C
:102880000AE161512918D8B448EF14F04BEF14F065
:10289000010E4CEF14F0000E9FEC16F01200000138
:1028A000606F000E0001616F000E82BE010E6019A4
:1028B000D8A45DEF14F05FEF14F06CEF14F0000E8D
:1028C00082BA010E2818D8A468EF14F06AEF14F049
:1028D0006CEF14F0010E616F6151D8A472EF14F027
:1028E00075EF14F0010E76EF14F0000E9FEC16F069
:1028F0001200828082828284828682A882EF14F013
:1029000085EF14F0828886EF14F08298150E1F6E02
:102910004B0E1E6EBE0EE82EFED71E2EFCD71F2EAF
:10292000FAD700D0150E1F6E4B0E1E6EBE0EE82E8F
:10293000FED71E2EFCD71F2EFAD700D07DEF14F045
:102940001200000E216E040E206E010E226E8FEC1E
:1029500012F0286E2850D8B4B0EF14F0B2EF14F093
:10296000BAEF14F02804D8A4B8EF14F0BAEF14F0BA
:10297000BDEF14F02850C5EF14F0879C520E881656
:10298000A50E8916838A828C020E12001F6E848621
:1029900084881FB0CEEF14F0D1EF14F08482D2EF10
:1029A00014F084921FB2D7EF14F0DAEF14F0848C95
:1029B000DBEF14F0849C1FB4E0EF14F0E3EF14F0AD
:1029C0008384E4EF14F083941EB002D0839601D088
:1029D00083861200000EF2BE010E216E310E7B6E58
:1029E0001F507A6E1EC079FF20C07CFF7F8EF29E42
:1029F000550E816EAA0E816E808880B802EF15F0A8
:102A000004EF15F0FDEF14F021B002D0F29E01D0DA
:102A1000F28E7F9E1200000EF2BE010E046E310E89
:102A20007B6E02507A6E01C079FF03C07CFF7F8EFF
:102A3000F29E550E816EAA0E816E808880B823EFBB
:102A400015F025EF15F01EEF15F004B002D0F29E40
:102A500001D0F28E7F9E1200F00EF66E300EF76EF1
:102A6000000EF86E00EE3EF010EE04F00900F5CF17
:102A7000EEFFE550E150FAE10001846B836B826B5D
:102A8000816B00EE34F00A0EEE6AE806FDE142903A
:102A9000429200013AEF12F0000E0E016E6F050E29
:102AA000E82EFED700F0800E0E016E6F050EE82EA8
:102AB000FED700F0000E0E016E6F39B002D0829E7C
:102AC00001D0828E82BE67EF15F06AEF15F0828A20
:102AD0006BEF15F0829A1200000E0E016E6F050E5C
:102AE000E82EFED700F0800E0E016E6F050EE82E68
:102AF000FED700F0000E0E016E6F39B002D0829E3C
:102B000001D0828E82BE87EF15F08AEF15F0828A9F
:102B10008BEF15F0829A1200000E266E000E256EC5
:102B200022C01EF023C01FF024C020F0EAEC14F0F5
:102B3000224A232A254A262A26BEA8EF15F0265027
:102B400009E1030E255CD8A0A8EF15F0AAEF15F057
:102B500090EF15F012000F0105ADB1EF15F0B3EFD6
:102B600015F0B5EF15F087EC16F00F010DA1BBEFD6
:102B700015F0BDEF15F0BFEF15F06FEC16F00F017B
:102B80000DABC5EF15F0C7EF15F0C9EF15F057EC19
:102B900016F01200000E096E000E086E05C001F05E
:102BA00006C002F007C003F00BEC15F0054A062A38
:102BB000084A092A09BEE6EF15F0095009E1030E9B
:102BC000085CD8A0E6EF15F0E8EF15F0CEEF15F0B1
:102BD0001200900ED56EF30ED36EE40ED26ED2506C
:102BE000D3CF20F0216A20C021F0206A20102C6E63
:102BF00021502D6E0E01C59BBD8BF80E1E6E300E42
:102C00001F6E64EC18F0900ED46E1200CCEC16F02F
:102C10003DC03CF03B68D5EC12F04CEC15F03C0E9E
:102C20001E6E1D0E1F6E73EC18F03C0E1E6E1D0EF8
:102C30001F6E6EEC18F03C0E1E6E1D0E1F6E69ECC2
:102C400018F012007AEC18F0F7EC17F0D5EC11F050
:102C50001DEC18F07CEC17F03AEC17F0E2EC16F0F3
:102C600024EC17F0F8EC16F00EEC17F050EC17F01F
:102C700066EC17F0E9EC15F012000E01C59B2D5023
:102C8000D36E2CC0D2FF344A352A355009E1020EEA
:102C9000345CD8A04EEF16F050EF16F056EF16F059
:102CA00092EC17F0000E356E000E346E12002E50AE
:102CB0002F10D8B45EEF16F060EF16F06CEF16F040
:102CC00002D86CEF16F00500FA6E2E50FD6E2F50F4
:102CD000FE6EFF6AFA5012000F010D9B1200305079
:102CE0003110D8B476EF16F078EF16F084EF16F0C6
:102CF00002D884EF16F00500FA6E3050FD6E3150A8
:102D0000FE6EFF6AFA5012000F010D911200325050
:102D10003310D8B48EEF16F090EF16F09CEF16F04B
:102D200002D89CEF16F00500FA6E3250FD6E33505B
:102D3000FE6EFF6AFA5012000F01059D1200276E09
:102D40002750D8B4A6EF16F0A8EF16F0AAEF16F0A9
:102D5000B5EF16F0F29E000E236E040E226E010EE9
:102D6000246E8CEC15F053EC13F01200276E070E56
:102D70002764BDEF16F0BFEF16F0C1EF16F0000E9E
:102D8000276E000E236E000E226E27C024F08CECFE
:102D900015F027C03DF01200000E216E000E206ECF
:102DA000FF0E226E8FEC12F0286E070E2864DBEF08
:102DB00016F0DDEF16F0DFEF16F0000E286E28C0DB
:102DC0003DF01200000E0E016E6F000E6F6F000ED0
:102DD000706F000E716F000E726F000E736F000E39
:102DE000746F000E756F000E766F800E6D6F12009F
:102DF000020E0E01646F210E656F220E666F250EA6
:102E0000676F260E686FA00E696F000E6A6F000E66
:102E10006B6F000E6C6F800E636F1200000E0E0160
:102E20005A6F020E5B6F050E5C6F000E5D6F280E11
:102E30005E6F020E5F6F080E606F900E616F000E86
:102E4000626F840E596F1200000E0E01506F020E59
:102E5000516F040E526F000E536F280E546F020E06
:102E6000556F080E566F900E576F000E586F840EF8
:102E70004F6F1200000E0E01466F020E476F070ED5
:102E8000486F000E496F280E4A6F020E4B6F080EF6
:102E90004C6F900E4D6F000E4E6F840E456F1200FA
:102EA000000E0E013C6F020E3D6F060E3E6F000ECF
:102EB0003F6F280E406F020E416F080E426F900E5A
:102EC000436F000E446F840E3B6F1200000E0E0124
:102ED000326F020E336F030E346F000E356F280E03
:102EE000366F020E376F080E386F900E396F000E76
:102EF0003A6F840E316F1200000E0E01286F020E21
:102F0000296F010E2A6F000E2B6F280E2C6F020EF8
:102F10002D6F080E2E6F900E2F6F000E306F840EE7
:102F2000276F12002A502B10D8B499EF17F09BEF9F
:102F300017F0A7EF17F002D8A7EF17F00500FA6E09
:102F40002A50FD6E2B50FE6EFF6AFA5012001200DE
:102F50000A6E070E0A64AFEF17F0B1EF17F0B3EF88
:102F600017F0000E0A6E000E066E000E056E0AC007
:102F700007F0CAEC15F00AC03DF012001E6E1E509C
:102F8000D8B4C5EF17F0C8EF17F0010EC9EF17F06E
:102F9000000E3A6E1EC039F012001F6E1F50BEECBC
:102FA00017F0030E386E300E376E010E0001846F7D
:102FB000000E836F12001F6E1F50BEEC17F0100E34
:102FC000386E200E376E000E0001846F020E836F84
:102FD00012001F6E1F50BEEC17F0010E386E020E6D
:102FE000376E000E0001846F000E836F1200000E1A
:102FF0000E01DC6F000EDD6F000EDE6F000EDF6F66
:10300000000EE06F000EE16F12008390050EE82EB7
:10301000FED700F08380050EE82EFED700F08390E7
:103020001200828C050EE82EFED700F0829C050E61
:10303000E82EFED700F0828C1200600E0E01D36FD6
:10304000000ED56F000ED76F080ED96F000ED86F27
:1030500012001E6E1EB002D0839A01D0838A050E24
:10306000E82EFED700F012000E0163BB3AEF18F015
:103070003DEF18F0010E3EEF18F0000E1200310E79
:103080007B6E1F507A6E1EC079FF808000F000F0CA
:103090007C50120054EC18F0810E0F011A6F000ED4
:1030A000416E850E406E1200010E366E800E0E01CE
:1030B0005A6F5ACE50FE5A0E696F1200000E016E02
:1030C0003B5067EC11F012001EC02AF01FC02BF01D
:1030D00012001EC02EF01FC02FF012001EC030F0D4
:1030E0001FC031F012001EC032F01FC033F01200BA
:1030F00001000F01F29A12001200120012001200D9
:020000040020DA
:10000000FFFFFFFFFFFFFFFFFFFFFFFFFFFFFFFF00
:10001000FFFFFFFFFFFFFFFFFFFFFFFFFFFFFFFFF0
:10002000FFFFFFFFFFFFFFFFFFFFFFFFFFFFFFFFE0
:10003000FFFFFFFFFFFFFFFFFFFFFFFFFFFFFFFFD0
:10004000FFFFFFFFFFFFFFFFFFFFFFFFFFFFFFFFC0
:10005000FFFFFFFFFFFFFFFFFFFFFFFFFFFFFFFFB0
:10006000FFFFFFFFFFFFFFFFFFFFFFFFFFFFFFFFA0
:10007000FFFFFFFFFFFFFFFFFFFFFFFFFFFFFFFF90
:10008000FFFFFFFFFFFFFFFFFFFFFFFFFFFFFFFF80
:10009000FFFFFFFFFFFFFFFFFFFFFFFFFFFFFFFF70
:1000A000FFFFFFFFFFFFFFFFFFFFFFFFFFFFFFFF60
:1000B000FFFFFFFFFFFFFFFFFFFFFFFFFFFFFFFF50
:1000C000FFFFFFFFFFFFFFFFFFFFFFFFFFFFFFFF40
:1000D000FFFFFFFFFFFFFFFFFFFFFFFFFFFFFFFF30
:1000E000FFFFFFFFFFFFFFFFFFFFFFFFFFFFFFFF20
:1000F000FFFFFFFFFFFFFFFFFFFFFFFFFFFFFFFF10
:020000040030CA
:0C0000008CFFFFFF9FFFFFFFFFFFFFFFD3
:020000040031C9
:08000000FFFFFFFFFFFFFFFF00
:00000001FF
