:020000040000FA
:040000004AEF00F0D3
:100008004282FACF16F0FBCF17F0F3CF18F0F4CFF7
:1000180019F0F6CF1AF0F7CF1BF0F8CF1CF0F5CF98
:100028001DF00E01BDAB1BEF00F01DEF00F028EF37
:1000380000F0C5AB22EF00F024EF00F028EF00F04D
:10004800D5EC14F038EF00F0BDA92DEF00F02FEF3C
:1000580000F038EF00F0C5A934EF00F036EF00F0FB
:1000680038EF00F025EC14F01DC0F5FF1CC0F8FFB8
:100078001BC0F7FF1AC0F6FF19C0F4FF18C0F3FF42
:1000880017C0FBFF16C0FAFF4292110063EF14F08D
:100F000000000102030100020302000103030001CB
:100F100002000201030102000302030001030200B8
:100F200001010304050400000000F29E000178BFE7
:100F3000A3EF07F078510AE1040E775DD8A0A3EF84
:100F400007F0A6EF07F0010EA7EF07F0000E37EC51
:100F500015F077C071F078C072F0000E286E000EA8
:100F6000296E000EFCEC12F0000E216E000E206EB9
:100F7000000E226EF8EC11F0FF0AD8B4C2EF07F0B1
:100F8000C5EF07F0010EC6EF07F0000E37EC15F0C5
:100F9000000E216E040E206E000E226EF8EC11F091
:100FA000FF0AD8B4D6EF07F0D9EF07F0010EDAEF59
:100FB00007F0000E37EC15F0000E0001696F84B8E1
:100FC000E4EF07F0E6EF07F055EF08F08EBAEBEF2D
:100FD00007F0EDEF07F055EF08F084B6F2EF07F0F9
:100FE000F4EF07F055EF08F08EB4F9EF07F0FBEFE0
:100FF00007F055EF08F084B200EF08F002EF08F0B8
:1010000055EF08F08EB007EF08F009EF08F055EF44
:1010100008F084BC0EEF08F010EF08F055EF08F070
:101020008EBE15EF08F017EF08F055EF08F083B407
:101030001CEF08F01EEF08F055EF08F08DB223EF1B
:1010400008F025EF08F055EF08F083B62AEF08F016
:101050002CEF08F055EF08F08DB831EF08F033EFC2
:1010600008F055EF08F0B7EC16F00009D8A43BEFF4
:1010700008F03DEF08F055EF08F08DAA42EF08F0B8
:1010800044EF08F055EF08F083B049EF08F04BEF5C
:1010900008F055EF08F082AC50EF08F052EF08F07E
:1010A00055EF08F0010E0001696F00016951D8A4E5
:1010B0005CEF08F05FEF08F0010E60EF08F0000E43
:1010C00037EC15F0000E00016A6F82AE6AEF08F08F
:1010D0006CEF08F091EF08F082AA71EF08F073EF5F
:1010E00008F091EF08F082A278EF08F07AEF08F0AC
:1010F00091EF08F082B47FEF08F081EF08F091EFF4
:1011000008F082B686EF08F088EF08F091EF08F05B
:1011100082B88DEF08F08FEF08F091EF08F0010E24
:101120006A6F6A51D8A497EF08F09AEF08F0010EA1
:101130009BEF08F0000E37EC15F0000E00016C6F0D
:10114000000E6B6F6B056C11D8A4A9EF08F0ABEF24
:1011500008F0ADEF08F0D7EC16F0000E0001756F47
:1011600075511DEC10F0000E0001746F000E736FCE
:10117000000EC8EC12F0C9EF08F08488E8EF08F020
:101180008486E8EF08F08482E8EF08F0848CE8EFCA
:1011900008F073C067F074C068F000016851000A7D
:1011A000D8B4D5EF08F0E8EF08F06751000AD8B4DA
:1011B000BDEF08F0010AD8B4C0EF08F0030AD8B4B4
:1011C000C3EF08F0010AD8B4C6EF08F0E8EF08F062
:1011D00094EC16F000017551040D010E676F0F0EAF
:1011E000686FF3506727F450682373516727745171
:1011F000682367C0F6FF68C0F7FFF86A0800F5507B
:10120000286E296A000E2A6E000E2B6E4DEC0BF034
:101210000001734B742B74BF17EF09F0745109E18F
:10122000040E735DD8A017EF09F019EF09F0B8EFBD
:1012300008F0752B070E756520EF09F022EF09F015
:10124000B0EF08F0000EC8EC12F0838494EC16F0B6
:10125000FF0E296E2868010E2A6E000E2B6E4DECD3
:101260000BF0000EC8EC12F0838694EC16F0FF0E23
:10127000296E2868000E2A6E010E2B6E4DEC0BF0C5
:10128000010EC8EC12F0000E00016E6F000E6D6FC3
:101290006EBF54EF09F06E5109E1020E6D5DD8A0EA
:1012A00054EF09F056EF09F058EF09F082EF09F01A
:1012B00094EC16F0000E296E0F0E286E010E2A6EA9
:1012C000010E2B6E4DEC0BF000016D516E11D8B478
:1012D0006CEF09F06EEF09F072EF09F056EC16F0C2
:1012E00074EF09F088EC16F0FF0E296E2868000EE6
:1012F0002A6E000E2B6E4DEC0BF000016D4B6E2B29
:1013000048EF09F0000EC8EC12F0F28E050EE82E40
:10131000FED700F0F29E020E00017125676F000EED
:101320007221686F775167190AE178516819D8B44A
:101330009CEF09F09FEF09F0010EA0EF09F0000EFD
:1013400037EC15F077C071F078C072F0000E000134
:10135000756F8DBAAEEF09F0B1EF09F0010EB2EF83
:1013600009F0000E37EC15F03D683C68000E1E6E6B
:1013700000017551A0EC13F0F28E94EC16F0F29E81
:101380000001714B722B53EC13F075C028F0FF0E67
:10139000296E00017551FCEC12F0010E286E000E52
:1013A000296E000175515FEC0EF0150E0001686F9B
:1013B0004B0E676FBE0EE82EFED7672FFCD7682F47
:1013C000FAD700F03D683C68010E1E6E00017551B1
:1013D000A0EC13F0F28E94EC16F0F29E0001714B2B
:1013E000722B53EC13F075C028F075C029F0000182
:1013F0007551FCEC12F0010E286E010E296E0001F1
:1014000075515FEC0EF0150E0001686F4B0E676FA3
:10141000BE0EE82EFED7672FFCD7682FFAD700F054
:10142000F28E000EACEC16F0F29E0001714B722BA6
:1014300075C028F075C029F0000EFCEC12F0000E0B
:10144000286E00017551D8B428EF0AF02BEF0AF08E
:10145000010E2CEF0AF0000E296E000E5FEC0EF06C
:10146000150E0001686F4B0E676FBE0EE82EFED79B
:10147000672FFCD7682FFAD700F0F28E010EACEC84
:1014800016F0F29E0001714B722B75C028F075C0EA
:1014900029F07551FCEC12F0010E286E010E296E38
:1014A000000175515FEC0EF0150E0001686F4B0ED8
:1014B000676FBE0EE82EFED7672FFCD7682FFAD7CE
:1014C00000F00001752B070E756569EF0AF06BEFF0
:1014D0000AF0A9EF09F0000EC8EC12F0F28E050E2A
:1014E000E82EFED700F0F29E0001715177190AE153
:1014F00072517819D8B47FEF0AF082EF0AF0010E2A
:1015000083EF0AF0000E37EC15F000016B4B6C2BEB
:101510006CBF94EF0AF06C5109E1020E6B5DD8A02C
:1015200094EF0AF096EF0AF0A2EF08F0F28E000EA8
:10153000706F000E6F6F70BFA7EF0AF0705109E176
:10154000040E6F5DD8A0A7EF0AF0A9EF0AF0ABEF89
:101550000AF010EF0BF0010EACEC16F0000EC8EC28
:1015600012F0BFEF0AF08488DEEF0AF08486DEEF27
:101570000AF08482DEEF0AF0848CDEEF0AF06FC09E
:1015800067F070C068F000016851000AD8B4CBEF72
:101590000AF0DEEF0AF06751000AD8B4B3EF0AF0A0
:1015A000010AD8B4B6EF0AF0030AD8B4B9EF0AF0CA
:1015B000010AD8B4BCEF0AF0DEEF0AF094EC16F0A2
:1015C000070E3B18D8B4E7EF0AF0EAEF0AF0010E75
:1015D000EBEF0AF0000E37EC15F0000EACEC16F055
:1015E000070E3B18D8B4F7EF0AF0FAEF0AF0010E35
:1015F000FBEF0AF0000E37EC15F088EC16F03B50CC
:10160000D8B405EF0BF008EF0BF0010E09EF0BF06B
:10161000000E37EC15F000016F4B702B9BEF0AF0BA
:10162000F29E000E756F75514EEC15F0000175516C
:101630003D18D8B41EEF0BF021EF0BF0010E22EF96
:101640000BF0000E37EC15F03D6864EC15F000016E
:1016500075513D18D8B42FEF0BF032EF0BF0010E9F
:1016600033EF0BF0000E37EC15F00001752B070E71
:1016700075653DEF0BF03FEF0BF013EF0BF0000E35
:10168000236E040E226E000E246E06EC14F0000E83
:101690004EEC15F029EC13F0120029EF0DF0000EBE
:1016A0000001606F8EBA57EF0BF059EF0BF08FEF20
:1016B0000BF08EB45EEF0BF060EF0BF08FEF0BF0E2
:1016C0008EB065EF0BF068EF0BF0010E69EF0BF0D9
:1016D000000E3A18D8A46FEF0BF071EF0BF08FEFFC
:1016E0000BF08EBE76EF0BF079EF0BF0010E7AEF78
:1016F0000BF0000E3A18D8A480EF0BF082EF0BF03D
:101700008FEF0BF0B7EC16F00009D8A48AEF0BF0BE
:101710008CEF0BF08FEF0BF0010E0001606F0001FA
:101720006051D8A496EF0BF099EF0BF0010E9AEFF1
:101730000BF0000E37EC15F056EF0DF0000E000127
:10174000616F8EAAA6EF0BF0A8EF0BF0DEEF0BF0A7
:101750008EB4ADEF0BF0AFEF0BF0DEEF0BF08EB011
:10176000B4EF0BF0B7EF0BF0010EB8EF0BF0000E7B
:101770003A18D8A4BEEF0BF0C0EF0BF0DEEF0BF081
:101780008EBEC5EF0BF0C8EF0BF0010EC9EF0BF0EA
:10179000000E3A18D8A4CFEF0BF0D1EF0BF0DEEF2C
:1017A0000BF0B7EC16F03A18D8A4D9EF0BF0DBEF3A
:1017B0000BF0DEEF0BF0010E0001616F00016151D3
:1017C000D8A4E5EF0BF0E8EF0BF0010EE9EF0BF01A
:1017D000000E37EC15F056EF0DF0000E0001626FB1
:1017E0008EBAF5EF0BF0F7EF0BF02DEF0CF08EA4A7
:1017F000FCEF0BF0FEEF0BF02DEF0CF08EB003EFD3
:101800000CF006EF0CF0010E07EF0CF0000E3A188A
:10181000D8A40DEF0CF00FEF0CF02DEF0CF08EBEF6
:1018200014EF0CF017EF0CF0010E18EF0CF0000E97
:101830003A18D8A41EEF0CF020EF0CF02DEF0CF0AE
:10184000B7EC16F03A18D8A428EF0CF02AEF0CF0F9
:101850002DEF0CF0010E0001626F00016251D8A45F
:1018600034EF0CF037EF0CF0010E38EF0CF0000EF7
:1018700037EC15F056EF0DF0000E0001636F8EBAD5
:1018800044EF0CF046EF0CF07CEF0CF08EB44BEF15
:101890000CF04DEF0CF07CEF0CF08EB052EF0CF032
:1018A00055EF0CF0010E56EF0CF0000E3A18D8B4BC
:1018B0005CEF0CF05EEF0CF07CEF0CF08EBE63EF93
:1018C0000CF066EF0CF0010E67EF0CF0000E3A180A
:1018D000D8A46DEF0CF06FEF0CF07CEF0CF0B7ECD0
:1018E00016F00009D8B477EF0CF079EF0CF07CEF2C
:1018F0000CF0010E0001636F00016351D8A483EF67
:101900000CF086EF0CF0010E87EF0CF0000E37ECB8
:1019100015F056EF0DF0000E0001646F8EBA93EFD4
:101920000CF095EF0CF0CBEF0CF08EB49AEF0CF0BE
:101930009CEF0CF0CBEF0CF08EB0A1EF0CF0A4EF0D
:101940000CF0010EA5EF0CF0000E3A18D8A4ABEF86
:101950000CF0ADEF0CF0CBEF0CF08EBEB2EF0CF054
:10196000B5EF0CF0010EB6EF0CF0000E3A18D8B43B
:10197000BCEF0CF0BEEF0CF0CBEF0CF0B7EC16F0B8
:101980000009D8B4C6EF0CF0C8EF0CF0CBEF0CF0A8
:10199000010E0001646F00016451D8A4D2EF0CF075
:1019A000D5EF0CF0010ED6EF0CF0000E37EC15F071
:1019B00056EF0DF0000E0001656F8EAAE2EF0CF0FD
:1019C000E4EF0CF01AEF0DF08EA4E9EF0CF0EBEF62
:1019D0000CF01AEF0DF08EB0F0EF0CF0F3EF0CF00E
:1019E000010EF4EF0CF0000E3A18D8B4FAEF0CF038
:1019F000FCEF0CF01AEF0DF08EBE01EF0DF004EFCE
:101A00000DF0010E05EF0DF0000E3A18D8B40BEFF3
:101A10000DF00DEF0DF01AEF0DF0B7EC16F0000918
:101A2000D8B415EF0DF017EF0DF01AEF0DF0010E11
:101A30000001656F00016551D8A421EF0DF024EF7E
:101A40000DF0010E25EF0DF0000E37EC15F056EFFE
:101A50000DF028C02CF029C02DF02D50000AD8B46C
:101A600038EF0DF0FF0AD8B44FEF0DF056EF0DF040
:101A70002C50000AD8B49EEF0BF0010AD8B4EDEF59
:101A80000BF0030AD8B43CEF0CF0010AD8B48BEF8A
:101A90000CF00C0AD8B4DAEF0CF056EF0DF02C5025
:101AA000FF0AD8B44FEF0BF056EF0DF0000E000117
:101AB000666F8DB25EEF0DF061EF0DF0010E62EF1B
:101AC0000DF0000E2A18D8A468EF0DF06AEF0DF0A3
:101AD0007DEF0DF08DB86FEF0DF072EF0DF0010E90
:101AE00073EF0DF0000E2B18D8A479EF0DF07BEFFB
:101AF0000DF07DEF0DF0010E666F6651D8A483EFF7
:101B00000DF086EF0DF0010E87EF0DF0000E37ECB3
:101B100015F0120077CE15F00001774B782B3A5074
:101B2000D8B495EF0DF097EF0DF09DEF0DF0300E5E
:101B3000151A9DEF0DF05EEF0EF01550330B0D6E84
:101B40000E6A0E50000AD8B4A8EF0DF0BBEF0DF0EE
:101B50000D50010AD8B49BEF0DF0030AD8B45EEF24
:101B60000EF0120AD8B45EEF0EF0300AD8B45EEF71
:101B70000EF0BBEF0DF0070E3B64C1EF0DF0C3EFAD
:101B80000DF0C5EF0DF05EEF0EF0000E136E010EBE
:101B9000146E000E126E000E116EF5EF0DF015A012
:101BA000D4EF0DF0D6EF0DF026EF0EF01450131217
:101BB00026EF0EF015A2DFEF0DF0E1EF0DF026EFAE
:101BC0000EF0D6EF0DF015A8E8EF0DF0EAEF0DF0EE
:101BD00026EF0EF0D6EF0DF015AAF1EF0DF0F3EFB2
:101BE0000DF026EF0EF0D6EF0DF03B50040D010E78
:101BF0000D6E0F0E0E6EF3500D26F4500E22115086
:101C00000D2612500E220DC0F6FF0EC0F7FFF86A27
:101C10000800F5500F6E106A1050000AD8B413EF88
:101C20000EF026EF0EF00F50000AD8B4CFEF0DF0F3
:101C3000010AD8B4DAEF0DF0030AD8B4E3EF0DF0DF
:101C4000010AD8B4ECEF0DF026EF0EF0D890143660
:101C5000114A122A12BE36EF0EF0125009E1040E9C
:101C6000115CD8A036EF0EF038EF0EF0F5EF0DF066
:101C700015A43DEF0EF03FEF0EF041EF0EF01450C3
:101C800013121350030B030AD8A449EF0EF04BEFC5
:101C90000EF05CEF0EF068EC16F01340E8423F0BDC
:101CA000070B3C6E15A657EF0EF059EF0EF05CEFE8
:101CB0000EF03C5040EC16F0AEEC11F012002B6E22
:101CC000040E2B6066EF0EF06AEF0EF02A6A2A2AE5
:101CD0006BEF0EF02A6A000E82B0010E2A18D8B4FB
:101CE00074EF0EF077EF0EF0010E78EF0EF0000EAD
:101CF00037EC15F0030E2B162B50D8B482EF0EF0F4
:101D000086EF0EF02A6A2A2A87EF0EF02A6A000E62
:101D100082B2010E2A18D8B490EF0EF093EF0EF0B5
:101D2000010E94EF0EF0000E37EC15F02B04D8B432
:101D30009CEF0EF0A0EF0EF02A6A2A2AA1EF0EF017
:101D40002A6A000E82B4010E2A18D8B4AAEF0EF047
:101D5000ADEF0EF0010EAEEF0EF0000E37EC15F009
:101D6000020E2B18D8B4B7EF0EF0BBEF0EF02A6AB4
:101D70002A2ABCEF0EF02A6A000E82B6010E2A183B
:101D8000D8B4C5EF0EF0C8EF0EF0010EC9EF0EF09B
:101D9000000E37EC15F0030E2B18D8B4D2EF0EF06E
:101DA000D6EF0EF02A6A2A2AD7EF0EF02A6A000E22
:101DB00082B8010E2A18D8B4E0EF0EF0E3EF0EF06F
:101DC000010EE4EF0EF0000E37EC15F0000E82BEAF
:101DD000010E2818D8B4EFEF0EF0F2EF0EF0010E5E
:101DE000F3EF0EF0000E37EC15F0000E82BA010E84
:101DF0002918D8B4FEEF0EF001EF0FF0010E02EF3C
:101E00000FF0000E37EC15F01200236E1E50D8A410
:101E10000CEF0FF00EEF0FF019EF0FF03F5007E14E
:101E2000020E3E5CD8B017EF0FF019EF0FF01DEF68
:101E30000FF040C03EF041C03FF03EB022EF0FF047
:101E400025EF0FF0010E26EF0FF0000E246ED89054
:101E50003F323E32000E1F6E2350D8A432EF0FF0F7
:101E600034EF0FF03EEF0FF02450D8B43AEF0FF0FC
:101E70003CEF0FF03EEF0FF0010E1F6E1FB002D0CF
:101E8000829201D08282000E206E2304D8A44BEFF0
:101E90000FF04DEF0FF057EF0FF02450D8B453EF81
:101EA0000FF055EF0FF057EF0FF0010E206E20B03E
:101EB00002D0829401D08284000E216E020E23187B
:101EC000D8A465EF0FF067EF0FF071EF0FF024501B
:101ED000D8B46DEF0FF06FEF0FF071EF0FF0010E50
:101EE000216E21B002D0829601D08286000E226E31
:101EF000030E2318D8A47FEF0FF081EF0FF08BEFC4
:101F00000FF02450D8B487EF0FF089EF0FF08BEF6C
:101F10000FF0010E226E22B002D0829801D082888A
:101F20001200066E0150D8A498EF0FF09AEF0FF050
:101F3000A5EF0FF03F5007E1020E3E5CD8B0A3EFD3
:101F40000FF0A5EF0FF0A9EF0FF040C03EF041C039
:101F50003FF03EB0AEEF0FF0B1EF0FF0010EB2EF79
:101F60000FF0000E076ED8903F323E32000E026E28
:101F70000650D8A4BEEF0FF0C0EF0FF0CAEF0FF07D
:101F80000750D8B4C6EF0FF0C8EF0FF0CAEF0FF04C
:101F9000010E026E02B002D0829201D08282000E47
:101FA000036E0604D8A4D7EF0FF0D9EF0FF0E3EFDC
:101FB0000FF00750D8B4DFEF0FF0E1EF0FF0E3EFD1
:101FC0000FF0010E036E03B002D0829401D0828420
:101FD000000E046E020E0618D8A4F1EF0FF0F3EF16
:101FE0000FF0FDEF0FF00750D8B4F9EF0FF0FBEF53
:101FF0000FF0FDEF0FF0010E046E04B002D08296D8
:1020000001D08286000E056E030E0618D8A40BEFD1
:1020100010F00DEF10F017EF10F00750D8B413EFD9
:1020200010F015EF10F017EF10F0010E056E05B06F
:1020300002D0829801D082881200226E070E22649C
:1020400024EF10F026EF10F028EF10F0000E226EB3
:10205000000E256E000E246E210E2424F66E0F0E47
:102060002520F76EF86A000EF8220800F5CF23F05D
:102070004AEF10F023C02AFE7BEF10F023C034FE9D
:102080007BEF10F023C052FE7BEF10F023C05CFE0C
:102090007BEF10F02250040D010E1E6E0F0E1F6E0E
:1020A000F3501E26F4501F2224501E2625501F22B6
:1020B0001EC0F6FF1FC0F7FFF86A0800F550206E3B
:1020C000216A2150000AD8B468EF10F07BEF10F0BD
:1020D0002050000AD8B43AEF10F0010AD8B43EEF0D
:1020E00010F0030AD8B442EF10F0010AD8B446EF5A
:1020F00010F07BEF10F0244A252A25BE89EF10F05E
:10210000255009E1040E245CD8A089EF10F08BEF74
:1021100010F02CEF10F022C03BF01200056E070EFD
:10212000056495EF10F097EF10F099EF10F0000EA6
:10213000056E000E076E000E066E210E0624F66E6A
:102140000F0E0720F76EF86A000EF8220800F5CF90
:1021500008F0BBEF10F008C02AFEECEF10F008C04A
:1021600034FEECEF10F008C052FEECEF10F008C0A7
:102170005CFEECEF10F00550040D010E016E0F0E29
:10218000026EF3500126F450022206500126075039
:10219000022201C0F6FF02C0F7FFF86A0800F550FE
:1021A000036E046A0450000AD8B4D9EF10F0ECEFC3
:1021B00010F00350000AD8B4ABEF10F0010AD8B405
:1021C000AFEF10F0030AD8B4B3EF10F0010AD8B49F
:1021D000B7EF10F0ECEF10F0064A072A07BEFAEF4F
:1021E00010F0075009E1040E065CD8A0FAEF10F0D9
:1021F000FCEF10F09DEF10F005C03BF01200000E58
:10220000826E000E836E000E846E400E876EAD0EE1
:10221000886E5A0E896E000E0F011C6F000E146F2F
:10222000000E0C6F000E286F800E136F000E0B6FE8
:10223000000E1B6F000E0A6F000E126F000E1A6F59
:10224000096911691969086910691869080E256F0B
:10225000059D068D079D0D910D9B0E910E8B0F8197
:102260000F8B020E1E6E2E0E1F6EF7EC16F0040E74
:102270001E6E2E0E1F6EF2EC16F0060E1E6E2E0E49
:102280001F6EEDEC16F00E01BD890B0E266F1C0EB5
:10229000F26F1E0EF06F0A0E256F130E226F110ED5
:1022A000236F160E246F1B0EEE6F190EF46F1A0EAD
:1022B000EB6F060E1F6F080E216F140E206F180EA5
:1022C000F76F1D0EF96F12008DBA69EF11F06CEF08
:1022D00011F0010E6DEF11F0000E286E2850D8A4F9
:1022E00074EF11F076EF11F07CEF11F0000E276E15
:1022F000000E266E7FEF11F03CC026F0276A26C044
:1023000029F03B502918D8B488EF11F08AEF11F06A
:102310008DEF11F029501DEC10F03D502918D8B464
:1023200094EF11F097EF11F0828A98EF11F0829AF2
:1023300028B002D0829E01D0828E040E2960A3EFC5
:1023400011F0A6EF11F08280A7EF11F08290010E3C
:102350001E6E2950030B05EC0FF012008DBAB3EF7F
:1023600011F0B6EF11F0010EB7EF11F0000E0B6E89
:102370000B50D8A4BEEF11F0C0EF11F0C6EF11F072
:10238000000E0A6E000E096EC9EF11F03CC009F094
:102390000A6A09C00CF03B500C18D8B4D2EF11F007
:1023A000D4EF11F0D7EF11F00C508EEC10F03D503F
:1023B0000C18D8B4DEEF11F0E1EF11F0828AE2EFF1
:1023C00011F0829A0BB002D0829E01D0828E040E50
:1023D0000C60EDEF11F0F0EF11F08280F1EF11F0F1
:1023E0008290010E016E0C50030B91EC0FF0120065
:1023F000000E246E000E236E250E2324D96E000ECF
:102400002420DA6E20C01EF021C01FF0C2EC16F0AE
:10241000DF6E204A212A234A242A24BE19EF12F013
:10242000245009E1030E235CD8A019EF12F01BEF32
:1024300012F0FCEF11F025502618D8B422EF12F05C
:1024400024EF12F02DEF12F025502718D8A42BEF0F
:1024500012F02DEF12F030EF12F025503DEF12F098
:1024600027502618D8A437EF12F039EF12F03CEFBE
:1024700012F026503DEF12F022501200BAEC14F088
:102480007BEC13F00001766F88BC49EF12F04BEF44
:1024900012F05DEF12F0020E7619D8B452EF12F07E
:1024A00054EF12F05DEF12F08DBE59EF12F05BEFBA
:1024B00012F05DEF12F0CDEC16F09EEC14F000017E
:1024C0007605D8A466EF12F068EF12F06AEF12F00A
:1024D00083EC12F0F28EF28C020E00017619D8A471
:1024E00074EF12F076EF12F078EF12F095EC07F03F
:1024F000C20E1E6E2D0E1F6EE8EC16F003007EEF6E
:1025000012F04AEF00F082AE88EF12F08BEF12F07B
:10251000828A8CEF12F0829A82BA91EF12F094EFD5
:1025200012F0828095EF12F0829082AE9AEF12F054
:102530009DEF12F082889EEF12F0829882B8A3EF8E
:1025400012F0A6EF12F08286A7EF12F0829682B602
:10255000ACEF12F0AFEF12F08284B0EF12F0829481
:1025600082B4B5EF12F0B8EF12F08282B9EF12F038
:102570008292150E1F6E4B0E1E6EBE0EE82EFED7FB
:102580001E2EFCD71F2EFAD700D083EF12F01200B8
:102590001E6E1EB002D0839601D0838683B6D3EF21
:1025A00012F0D6EF12F08384D7EF12F0839483B445
:1025B000DCEF12F0DFEF12F0848CE0EF12F0849C7D
:1025C00084BCE5EF12F0E8EF12F08482E9EF12F03C
:1025D000849284B2EEEF12F0F1EF12F08486F2EF03
:1025E00012F0849684B6F7EF12F0FAEF12F08488B6
:1025F000FBEF12F0849812002A6E000E2B6E2A5008
:102600003B18D8A406EF13F008EF13F01CEF13F0FB
:1026100028503C18D8A40FEF13F011EF13F01CEF63
:1026200013F029503D18D8A418EF13F01AEF13F047
:102630001CEF13F0010E2B6E2B50D8A422EF13F0D9
:1026400025EF13F0010E26EF13F0000E37EC15F016
:1026500012008288828682848282828A828082AE0E
:1026600034EF13F037EF13F0828E38EF13F0829EC1
:10267000150E1F6E4B0E1E6EBE0EE82EFED71E2EC2
:10268000FCD71F2EFAD700D0150E1F6E4B0E1E6EF4
:10269000BE0EE82EFED71E2EFCD71F2EFAD700D076
:1026A0002FEF13F012003A50D8A459EF13F05BEF5C
:1026B00013F061EF13F0000E2B6E000E2A6E65EF23
:1026C00013F0000E2B6E300E2A6E0E0177513F0B69
:1026D000286E296A2A5028180AE12B502918D8B4E4
:1026E00074EF13F077EF13F0010E78EF13F0000E94
:1026F00037EC15F01200000E216E040E206E010E54
:10270000226EF8EC11F0286E2850D8B48AEF13F03E
:102710008CEF13F094EF13F02804D8A492EF13F089
:1027200094EF13F097EF13F028509FEF13F0879C6E
:10273000520E8816A50E8916838A828C020E12000C
:102740001F6E848684881FB0A8EF13F0ABEF13F0E0
:102750008482ACEF13F084921FB2B1EF13F0B4EFA8
:1027600013F0848CB5EF13F0849C1FB4BAEF13F010
:10277000BDEF13F08384BEEF13F083941EB002D03C
:10278000839601D083861200000EF2BE010E216EE8
:10279000310E7B6E1F507A6E1EC079FF20C07CFF09
:1027A0007F8EF29E550E816EAA0E816E808880B853
:1027B000DCEF13F0DEEF13F0D7EF13F021B002D00F
:1027C000F29E01D0F28E7F9E1200000EF2BE010E2C
:1027D000046E310E7B6E02507A6E01C079FF03C029
:1027E0007CFF7F8EF29E550E816EAA0E816E8088D0
:1027F00080B8FDEF13F0FFEF13F0F8EF13F004B023
:1028000002D0F29E01D0F28E7F9E1200000E266E44
:10281000000E256E22C01EF023C01FF024C020F041
:10282000C4EC13F0224A232A254A262A26BE22EF88
:1028300014F0265009E1030E255CD8A022EF14F015
:1028400024EF14F00AEF14F012000F0105AD2BEF86
:1028500014F02DEF14F02FEF14F01FEC15F00F0112
:102860000DA135EF14F037EF14F039EF14F007EC49
:1028700015F00F010DAB3FEF14F041EF14F043EFF3
:1028800014F0EFEC14F01200000E096E000E086E4A
:1028900005C001F006C002F007C003F0E5EC13F03C
:1028A000054A062A084A092A09BE60EF14F00950B1
:1028B00009E1030E085CD8A060EF14F062EF14F099
:1028C00048EF14F01200F80EF66E2D0EF76E000EA3
:1028D000F86E00EE3EF010EE04F00900F5CFEEFFCA
:1028E000E550E150FAE10001786B776B3D6A3C6A94
:1028F0003B6A3A6A396A386A4290429200013EEF76
:1029000012F0900ED56EF30ED36EE40ED26ED2504E
:10291000D3CF20F0216A20C021F0206A2010306E31
:102920002150316E0E01C59BBD8B000E1E6E2E0E0A
:102930001F6EE8EC16F0900ED46E120064EC15F0E9
:102940003DC03CF03B6864EC11F056EC16F0140E00
:102950001E6E1B0E1F6EF7EC16F0140E1E6E1B0E75
:102960001F6EF2EC16F0140E1E6E1B0E1F6EEDECB9
:1029700016F01200FEEC16F07AEC16F0FFEC10F0F8
:10298000A0EC16F014EC16F0D2EC15F07AEC15F081
:10299000BCEC15F090EC15F0A6EC15F0E8EC15F099
:1029A000FEEC15F081EC14F012000E01C59B3150C5
:1029B000D36E30C0D2FF384A392A395009E1020EAD
:1029C000385CD8A0E6EF14F0E8EF14F0EEEF14F066
:1029D0002AEC16F0000E396E000E386E12003250DE
:1029E0003310D8B4F6EF14F0F8EF14F004EF15F04C
:1029F00002D804EF15F00500FA6E3250FD6E335028
:102A0000FE6EFF6AFA5012000F010D9B1200345047
:102A10003510D8B40EEF15F010EF15F01CEF15F0CF
:102A200002D81CEF15F00500FA6E3450FD6E3550DB
:102A3000FE6EFF6AFA5012000F010D91120036501F
:102A40003710D8B426EF15F028EF15F034EF15F055
:102A500002D834EF15F00500FA6E3650FD6E37508F
:102A6000FE6EFF6AFA5012000F01059D1200276EDC
:102A70002750D8B43EEF15F040EF15F042EF15F0B7
:102A80004DEF15F0F29E000E236E040E226E010E25
:102A9000246E06EC14F083EC12F01200276E070E81
:102AA000276455EF15F057EF15F059EF15F0000EAC
:102AB000276E000E236E000E226E27C024F006EC57
:102AC00014F027C03DF01200000E216E000E206EA3
:102AD000FF0E226EF8EC11F0286E070E286473EFDB
:102AE00015F075EF15F077EF15F0000E286E28C081
:102AF0003DF01200000E0E016E6F000E6F6F000EA3
:102B0000706F000E716F000E726F000E736F000E0B
:102B1000746F000E756F000E766F800E6D6F120071
:102B2000020E0E01646F210E656F220E666F250E78
:102B3000676F260E686FA00E696F000E6A6F000E39
:102B40006B6F000E6C6F800E636F1200000E0E0133
:102B50005A6F020E5B6F050E5C6F000E5D6F280EE4
:102B60005E6F020E5F6F080E606F900E616F000E59
:102B7000626F840E596F1200000E0E01506F020E2C
:102B8000516F040E526F000E536F280E546F020ED9
:102B9000556F080E566F900E576F000E586F840ECB
:102BA0004F6F1200000E0E01466F020E476F070EA8
:102BB000486F000E496F280E4A6F020E4B6F080EC9
:102BC0004C6F900E4D6F000E4E6F840E456F1200CD
:102BD000000E0E013C6F020E3D6F060E3E6F000EA2
:102BE0003F6F280E406F020E416F080E426F900E2D
:102BF000436F000E446F840E3B6F1200000E0E01F7
:102C0000326F020E336F030E346F000E356F280ED5
:102C1000366F020E376F080E386F900E396F000E48
:102C20003A6F840E316F1200000E0E01286F020EF3
:102C3000296F010E2A6F000E2B6F280E2C6F020ECB
:102C40002D6F080E2E6F900E2F6F000E306F840EBA
:102C5000276F12002E502F10D8B431EF16F033EF3B
:102C600016F03FEF16F002D83FEF16F00500FA6EAF
:102C70002E50FD6E2F50FE6EFF6AFA5012001200A9
:102C80000A6E070E0A6447EF16F049EF16F04BEF95
:102C900016F0000E0A6E000E066E000E056E0AC0DB
:102CA00007F044EC14F00AC03DF01200000E0E01D3
:102CB0006E6F050EE82EFED700F0800E0E016E6FCF
:102CC000050EE82EFED700F0000E0E016E6F12000A
:102CD000000E0E016E6F050EE82EFED700F0800E7E
:102CE0000E016E6F050EE82EFED700F0000E0E01ED
:102CF0006E6F1200000E0E01DC6F000EDD6F000E15
:102D0000DE6F000EDF6F000EE06F000EE16F12004D
:102D1000828C050EE82EFED700F0829C050EE82E70
:102D2000FED700F0828C12008390050EE82EFED7AD
:102D300000F08380050EE82EFED700F0839012008D
:102D4000600E0E01D36F000ED56F000ED76F080E08
:102D5000D96F000ED86F12001E6E1EB002D0839A7B
:102D600001D0838A050EE82EFED700F012000E0176
:102D700063BBBDEF16F0C0EF16F0010EC1EF16F009
:102D8000000E1200310E7B6E1F507A6E1EC079FF4E
:102D9000808000F000F07C501200D7EC16F0810E1D
:102DA0000F011A6F000E416E850E406E1200010E6B
:102DB0003A6E800E0E015A6F5ACE50FE5A0E696F4F
:102DC0001200000E016E3B50030B91EC0FF012004D
:102DD0001EC02EF01FC02FF012001EC032F01FC008
:102DE00033F012001EC034F01FC035F012001EC0B8
:102DF00036F01FC037F0120001000F01F29A1200E6
:082E0000120012001200120082
:020000040020DA
:10000000FFFFFFFFFFFFFFFFFFFFFFFFFFFFFFFF00
:10001000FFFFFFFFFFFFFFFFFFFFFFFFFFFFFFFFF0
:10002000FFFFFFFFFFFFFFFFFFFFFFFFFFFFFFFFE0
:10003000FFFFFFFFFFFFFFFFFFFFFFFFFFFFFFFFD0
:10004000FFFFFFFFFFFFFFFFFFFFFFFFFFFFFFFFC0
:10005000FFFFFFFFFFFFFFFFFFFFFFFFFFFFFFFFB0
:10006000FFFFFFFFFFFFFFFFFFFFFFFFFFFFFFFFA0
:10007000FFFFFFFFFFFFFFFFFFFFFFFFFFFFFFFF90
:10008000FFFFFFFFFFFFFFFFFFFFFFFFFFFFFFFF80
:10009000FFFFFFFFFFFFFFFFFFFFFFFFFFFFFFFF70
:1000A000FFFFFFFFFFFFFFFFFFFFFFFFFFFFFFFF60
:1000B000FFFFFFFFFFFFFFFFFFFFFFFFFFFFFFFF50
:1000C000FFFFFFFFFFFFFFFFFFFFFFFFFFFFFFFF40
:1000D000FFFFFFFFFFFFFFFFFFFFFFFFFFFFFFFF30
:1000E000FFFFFFFFFFFFFFFFFFFFFFFFFFFFFFFF20
:1000F000FFFFFFFFFFFFFFFFFFFFFFFFFFFFFFFF10
:020000040030CA
:0C0000008CFFFFFF9FFFFFFFFFFFFFFFD3
:020000040031C9
:08000000FFFFFFFFFFFFFFFF00
:00000001FF
